{
  "_format": "hh-sol-artifact-1",
  "contractName": "Gifties",
  "sourceName": "contracts/Gifties.sol",
  "abi": [
    {
      "inputs": [
        {
          "internalType": "uint256",
          "name": "_fee",
          "type": "uint256"
        }
      ],
      "stateMutability": "nonpayable",
      "type": "constructor"
    },
    {
      "anonymous": false,
      "inputs": [
        {
          "indexed": true,
          "internalType": "address",
          "name": "owner",
          "type": "address"
        },
        {
          "indexed": true,
          "internalType": "address",
          "name": "approved",
          "type": "address"
        },
        {
          "indexed": true,
          "internalType": "uint256",
          "name": "tokenId",
          "type": "uint256"
        }
      ],
      "name": "Approval",
      "type": "event"
    },
    {
      "anonymous": false,
      "inputs": [
        {
          "indexed": true,
          "internalType": "address",
          "name": "owner",
          "type": "address"
        },
        {
          "indexed": true,
          "internalType": "address",
          "name": "operator",
          "type": "address"
        },
        {
          "indexed": false,
          "internalType": "bool",
          "name": "approved",
          "type": "bool"
        }
      ],
      "name": "ApprovalForAll",
      "type": "event"
    },
    {
      "anonymous": false,
      "inputs": [
        {
          "indexed": true,
          "internalType": "address",
          "name": "previousOwner",
          "type": "address"
        },
        {
          "indexed": true,
          "internalType": "address",
          "name": "newOwner",
          "type": "address"
        }
      ],
      "name": "OwnershipTransferred",
      "type": "event"
    },
    {
      "anonymous": false,
      "inputs": [
        {
          "indexed": true,
          "internalType": "address",
          "name": "from",
          "type": "address"
        },
        {
          "indexed": true,
          "internalType": "address",
          "name": "to",
          "type": "address"
        },
        {
          "indexed": true,
          "internalType": "uint256",
          "name": "tokenId",
          "type": "uint256"
        }
      ],
      "name": "Transfer",
      "type": "event"
    },
    {
      "inputs": [
        {
          "internalType": "address",
          "name": "",
          "type": "address"
        }
      ],
      "name": "addressToAmountSent",
      "outputs": [
        {
          "internalType": "uint256",
          "name": "",
          "type": "uint256"
        }
      ],
      "stateMutability": "view",
      "type": "function"
    },
    {
      "inputs": [
        {
          "internalType": "address",
          "name": "",
          "type": "address"
        },
        {
          "internalType": "uint256",
          "name": "",
          "type": "uint256"
        }
      ],
      "name": "addressToId",
      "outputs": [
        {
          "internalType": "uint256",
          "name": "",
          "type": "uint256"
        }
      ],
      "stateMutability": "view",
      "type": "function"
    },
    {
      "inputs": [
        {
          "internalType": "address",
          "name": "",
          "type": "address"
        },
        {
          "internalType": "uint256",
          "name": "",
          "type": "uint256"
        }
      ],
      "name": "addressToIdSent",
      "outputs": [
        {
          "internalType": "uint256",
          "name": "",
          "type": "uint256"
        }
      ],
      "stateMutability": "view",
      "type": "function"
    },
    {
      "inputs": [],
      "name": "addressToIds",
      "outputs": [],
      "stateMutability": "view",
      "type": "function"
    },
    {
      "inputs": [
        {
          "internalType": "address",
          "name": "to",
          "type": "address"
        },
        {
          "internalType": "uint256",
          "name": "tokenId",
          "type": "uint256"
        }
      ],
      "name": "approve",
      "outputs": [],
      "stateMutability": "nonpayable",
      "type": "function"
    },
    {
      "inputs": [
        {
          "internalType": "address",
          "name": "owner",
          "type": "address"
        }
      ],
      "name": "balanceOf",
      "outputs": [
        {
          "internalType": "uint256",
          "name": "",
          "type": "uint256"
        }
      ],
      "stateMutability": "view",
      "type": "function"
    },
    {
      "inputs": [
        {
          "internalType": "uint256",
          "name": "tokenId",
          "type": "uint256"
        }
      ],
      "name": "burn",
      "outputs": [],
      "stateMutability": "nonpayable",
      "type": "function"
    },
    {
      "inputs": [],
      "name": "fee",
      "outputs": [
        {
          "internalType": "uint256",
          "name": "",
          "type": "uint256"
        }
      ],
      "stateMutability": "view",
      "type": "function"
    },
    {
      "inputs": [
        {
          "internalType": "uint256",
          "name": "tokenId",
          "type": "uint256"
        }
      ],
      "name": "getApproved",
      "outputs": [
        {
          "internalType": "address",
          "name": "",
          "type": "address"
        }
      ],
      "stateMutability": "view",
      "type": "function"
    },
    {
      "inputs": [
        {
          "internalType": "address",
          "name": "tokenAddress",
          "type": "address"
        },
        {
          "internalType": "uint256",
          "name": "amount",
          "type": "uint256"
        },
        {
          "internalType": "address",
          "name": "recipient",
          "type": "address"
        }
      ],
      "name": "giftErc20",
      "outputs": [],
      "stateMutability": "payable",
      "type": "function"
    },
    {
      "inputs": [
        {
          "internalType": "address",
          "name": "tokenAddress",
          "type": "address"
        },
        {
          "internalType": "address",
          "name": "recipient",
          "type": "address"
        },
        {
          "internalType": "uint256",
          "name": "tokenId",
          "type": "uint256"
        }
      ],
      "name": "giftErc721",
      "outputs": [],
      "stateMutability": "payable",
      "type": "function"
    },
    {
      "inputs": [
        {
          "internalType": "address",
          "name": "recipient",
          "type": "address"
        },
        {
          "internalType": "uint256",
          "name": "amount",
          "type": "uint256"
        }
      ],
      "name": "giftEth",
      "outputs": [],
      "stateMutability": "payable",
      "type": "function"
    },
    {
      "inputs": [
        {
          "internalType": "uint256",
          "name": "",
          "type": "uint256"
        }
      ],
      "name": "giftIdtoGift",
      "outputs": [
        {
          "internalType": "enum Gifties.GiftType",
          "name": "giftType",
          "type": "uint8"
        },
        {
          "internalType": "address",
          "name": "asset",
          "type": "address"
        },
        {
          "internalType": "address",
          "name": "sender",
          "type": "address"
        },
        {
          "internalType": "address",
          "name": "recipient",
          "type": "address"
        },
        {
          "internalType": "uint256",
          "name": "tokenId",
          "type": "uint256"
        },
        {
          "internalType": "uint256",
          "name": "amount",
          "type": "uint256"
        },
        {
          "internalType": "bool",
          "name": "isOpened",
          "type": "bool"
        },
        {
          "internalType": "bool",
          "name": "isThanked",
          "type": "bool"
        },
        {
          "internalType": "string",
          "name": "symbol",
          "type": "string"
        }
      ],
      "stateMutability": "view",
      "type": "function"
    },
    {
      "inputs": [
        {
          "internalType": "address",
          "name": "owner",
          "type": "address"
        },
        {
          "internalType": "address",
          "name": "operator",
          "type": "address"
        }
      ],
      "name": "isApprovedForAll",
      "outputs": [
        {
          "internalType": "bool",
          "name": "",
          "type": "bool"
        }
      ],
      "stateMutability": "view",
      "type": "function"
    },
    {
      "inputs": [],
      "name": "name",
      "outputs": [
        {
          "internalType": "string",
          "name": "",
          "type": "string"
        }
      ],
      "stateMutability": "view",
      "type": "function"
    },
    {
      "inputs": [
        {
          "internalType": "uint256",
          "name": "id",
          "type": "uint256"
        }
      ],
      "name": "open",
      "outputs": [],
      "stateMutability": "nonpayable",
      "type": "function"
    },
    {
      "inputs": [],
      "name": "owner",
      "outputs": [
        {
          "internalType": "address",
          "name": "",
          "type": "address"
        }
      ],
      "stateMutability": "view",
      "type": "function"
    },
    {
      "inputs": [
        {
          "internalType": "uint256",
          "name": "tokenId",
          "type": "uint256"
        }
      ],
      "name": "ownerOf",
      "outputs": [
        {
          "internalType": "address",
          "name": "",
          "type": "address"
        }
      ],
      "stateMutability": "view",
      "type": "function"
    },
    {
      "inputs": [],
      "name": "renounceOwnership",
      "outputs": [],
      "stateMutability": "nonpayable",
      "type": "function"
    },
    {
      "inputs": [
        {
          "internalType": "address",
          "name": "from",
          "type": "address"
        },
        {
          "internalType": "address",
          "name": "to",
          "type": "address"
        },
        {
          "internalType": "uint256",
          "name": "tokenId",
          "type": "uint256"
        }
      ],
      "name": "safeTransferFrom",
      "outputs": [],
      "stateMutability": "nonpayable",
      "type": "function"
    },
    {
      "inputs": [
        {
          "internalType": "address",
          "name": "from",
          "type": "address"
        },
        {
          "internalType": "address",
          "name": "to",
          "type": "address"
        },
        {
          "internalType": "uint256",
          "name": "tokenId",
          "type": "uint256"
        },
        {
          "internalType": "bytes",
          "name": "_data",
          "type": "bytes"
        }
      ],
      "name": "safeTransferFrom",
      "outputs": [],
      "stateMutability": "nonpayable",
      "type": "function"
    },
    {
      "inputs": [
        {
          "internalType": "uint256",
          "name": "id",
          "type": "uint256"
        }
      ],
      "name": "sayThanks",
      "outputs": [],
      "stateMutability": "nonpayable",
      "type": "function"
    },
    {
      "inputs": [
        {
          "internalType": "address",
          "name": "operator",
          "type": "address"
        },
        {
          "internalType": "bool",
          "name": "approved",
          "type": "bool"
        }
      ],
      "name": "setApprovalForAll",
      "outputs": [],
      "stateMutability": "nonpayable",
      "type": "function"
    },
    {
      "inputs": [
        {
          "internalType": "bytes4",
          "name": "interfaceId",
          "type": "bytes4"
        }
      ],
      "name": "supportsInterface",
      "outputs": [
        {
          "internalType": "bool",
          "name": "",
          "type": "bool"
        }
      ],
      "stateMutability": "view",
      "type": "function"
    },
    {
      "inputs": [],
      "name": "symbol",
      "outputs": [
        {
          "internalType": "string",
          "name": "",
          "type": "string"
        }
      ],
      "stateMutability": "view",
      "type": "function"
    },
    {
      "inputs": [
        {
          "internalType": "uint256",
          "name": "index",
          "type": "uint256"
        }
      ],
      "name": "tokenByIndex",
      "outputs": [
        {
          "internalType": "uint256",
          "name": "",
          "type": "uint256"
        }
      ],
      "stateMutability": "view",
      "type": "function"
    },
    {
      "inputs": [
        {
          "internalType": "address",
          "name": "owner",
          "type": "address"
        },
        {
          "internalType": "uint256",
          "name": "index",
          "type": "uint256"
        }
      ],
      "name": "tokenOfOwnerByIndex",
      "outputs": [
        {
          "internalType": "uint256",
          "name": "",
          "type": "uint256"
        }
      ],
      "stateMutability": "view",
      "type": "function"
    },
    {
      "inputs": [
        {
          "internalType": "uint256",
          "name": "tokenId",
          "type": "uint256"
        }
      ],
      "name": "tokenURI",
      "outputs": [
        {
          "internalType": "string",
          "name": "",
          "type": "string"
        }
      ],
      "stateMutability": "pure",
      "type": "function"
    },
    {
      "inputs": [],
      "name": "totalSupply",
      "outputs": [
        {
          "internalType": "uint256",
          "name": "",
          "type": "uint256"
        }
      ],
      "stateMutability": "view",
      "type": "function"
    },
    {
      "inputs": [
        {
          "internalType": "address",
          "name": "from",
          "type": "address"
        },
        {
          "internalType": "address",
          "name": "to",
          "type": "address"
        },
        {
          "internalType": "uint256",
          "name": "tokenId",
          "type": "uint256"
        }
      ],
      "name": "transferFrom",
      "outputs": [],
      "stateMutability": "nonpayable",
      "type": "function"
    },
    {
      "inputs": [
        {
          "internalType": "address",
          "name": "newOwner",
          "type": "address"
        }
      ],
      "name": "transferOwnership",
      "outputs": [],
      "stateMutability": "nonpayable",
      "type": "function"
    }
  ],
  "bytecode": "0x60806040523480156200001157600080fd5b506040516200546a3803806200546a83398181016040528101906200003791906200029a565b6040518060400160405280601681526020017f48617070792042697274686461792121212121212121000000000000000000008152506040518060400160405280600481526020017f48424421000000000000000000000000000000000000000000000000000000008152508160009080519060200190620000bb929190620001d3565b508060019080519060200190620000d4929190620001d3565b505050620000f7620000eb6200010560201b60201c565b6200010d60201b60201c565b80600e81905550506200034f565b600033905090565b6000600b60009054906101000a900473ffffffffffffffffffffffffffffffffffffffff16905081600b60006101000a81548173ffffffffffffffffffffffffffffffffffffffff021916908373ffffffffffffffffffffffffffffffffffffffff1602179055508173ffffffffffffffffffffffffffffffffffffffff168173ffffffffffffffffffffffffffffffffffffffff167f8be0079c531659141344cd1fd0a4f28419497f9722a3daafe3b4186f6b6457e060405160405180910390a35050565b828054620001e190620002d0565b90600052602060002090601f01602090048101928262000205576000855562000251565b82601f106200022057805160ff191683800117855562000251565b8280016001018555821562000251579182015b828111156200025057825182559160200191906001019062000233565b5b50905062000260919062000264565b5090565b5b808211156200027f57600081600090555060010162000265565b5090565b600081519050620002948162000335565b92915050565b600060208284031215620002ad57600080fd5b6000620002bd8482850162000283565b91505092915050565b6000819050919050565b60006002820490506001821680620002e957607f821691505b602082108114156200030057620002ff62000306565b5b50919050565b7f4e487b7100000000000000000000000000000000000000000000000000000000600052602260045260246000fd5b6200034081620002c6565b81146200034c57600080fd5b50565b61510b806200035f6000396000f3fe6080604052600436106101d85760003560e01c80636352211e11610102578063b88d4fde11610095578063e3b26c1111610064578063e3b26c11146106f2578063e985e9c51461070e578063f20207ec1461074b578063f2fde38b14610762576101d8565b8063b88d4fde14610624578063c87b56dd1461064d578063c97986d41461068a578063ddca3f43146106c7576101d8565b80637cbb64e1116100d15780637cbb64e1146105685780638da5cb5b146105a557806395d89b41146105d0578063a22cb465146105fb576101d8565b80636352211e146104ae578063690e7c09146104eb57806370a0823114610514578063715018a614610551576101d8565b806323b872dd1161017a57806342966c681161014957806342966c68146103e75780634712cc03146104105780634f6ccce714610455578063553bda2a14610492576101d8565b806323b872dd1461032f5780632f745c591461035857806335d15b951461039557806342842e0e146103be576101d8565b8063081812fc116101b6578063081812fc14610261578063095ea7b31461029e57806318160ddd146102c75780631a384140146102f2576101d8565b806301ffc9a7146101dd578063064931d91461021a57806306fdde0314610236575b600080fd5b3480156101e957600080fd5b5061020460048036038101906101ff9190613dcf565b61078b565b60405161021191906148d8565b60405180910390f35b610234600480360381019061022f9190613c15565b61079d565b005b34801561024257600080fd5b5061024b610c27565b6040516102589190614987565b60405180910390f35b34801561026d57600080fd5b5061028860048036038101906102839190613e62565b610cb9565b60405161029591906147da565b60405180910390f35b3480156102aa57600080fd5b506102c560048036038101906102c09190613d1b565b610d3e565b005b3480156102d357600080fd5b506102dc610e56565b6040516102e99190614cc9565b60405180910390f35b3480156102fe57600080fd5b5061031960048036038101906103149190613d1b565b610e63565b6040516103269190614cc9565b60405180910390f35b34801561033b57600080fd5b5061035660048036038101906103519190613c15565b610e94565b005b34801561036457600080fd5b5061037f600480360381019061037a9190613d1b565b610ef4565b60405161038c9190614cc9565b60405180910390f35b3480156103a157600080fd5b506103bc60048036038101906103b79190613e62565b610f99565b005b3480156103ca57600080fd5b506103e560048036038101906103e09190613c15565b61109f565b005b3480156103f357600080fd5b5061040e60048036038101906104099190613e62565b6110bf565b005b34801561041c57600080fd5b5061043760048036038101906104329190613e62565b61111b565b60405161044c999897969594939291906148f3565b60405180910390f35b34801561046157600080fd5b5061047c60048036038101906104779190613e62565b611278565b6040516104899190614cc9565b60405180910390f35b6104ac60048036038101906104a79190613d1b565b61130f565b005b3480156104ba57600080fd5b506104d560048036038101906104d09190613e62565b6116dd565b6040516104e291906147da565b60405180910390f35b3480156104f757600080fd5b50610512600480360381019061050d9190613e62565b61178f565b005b34801561052057600080fd5b5061053b60048036038101906105369190613bb0565b611c03565b6040516105489190614cc9565b60405180910390f35b34801561055d57600080fd5b50610566611cbb565b005b34801561057457600080fd5b5061058f600480360381019061058a9190613bb0565b611d43565b60405161059c9190614cc9565b60405180910390f35b3480156105b157600080fd5b506105ba611d5b565b6040516105c791906147da565b60405180910390f35b3480156105dc57600080fd5b506105e5611d85565b6040516105f29190614987565b60405180910390f35b34801561060757600080fd5b50610622600480360381019061061d9190613cdf565b611e17565b005b34801561063057600080fd5b5061064b60048036038101906106469190613c64565b611f98565b005b34801561065957600080fd5b50610674600480360381019061066f9190613e62565b611ffa565b6040516106819190614987565b60405180910390f35b34801561069657600080fd5b506106b160048036038101906106ac9190613d1b565b6120a8565b6040516106be9190614cc9565b60405180910390f35b3480156106d357600080fd5b506106dc6120d9565b6040516106e99190614cc9565b60405180910390f35b61070c60048036038101906107079190613d57565b6120df565b005b34801561071a57600080fd5b5061073560048036038101906107309190613bd9565b61258b565b60405161074291906148d8565b60405180910390f35b34801561075757600080fd5b5061076061261f565b005b34801561076e57600080fd5b5061078960048036038101906107849190613bb0565b612621565b005b600061079682612719565b9050919050565b600e5434146107e1576040517f08c379a00000000000000000000000000000000000000000000000000000000081526004016107d890614ac9565b60405180910390fd5b6107e9612793565b60006107f483612854565b9050601060003373ffffffffffffffffffffffffffffffffffffffff1673ffffffffffffffffffffffffffffffffffffffff168152602001908152602001600020819080600181540180825580915050600190039060005260206000200160009091909190915055601160003373ffffffffffffffffffffffffffffffffffffffff1673ffffffffffffffffffffffffffffffffffffffff16815260200190815260200160002060008154809291906108ac90614f4f565b9190505550600084905060008173ffffffffffffffffffffffffffffffffffffffff166395d89b416040518163ffffffff1660e01b815260040160006040518083038186803b1580156108fe57600080fd5b505afa158015610912573d6000803e3d6000fd5b505050506040513d6000823e3d601f19601f8201168201806040525081019061093b9190613e21565b90508173ffffffffffffffffffffffffffffffffffffffff166342842e0e3330876040518463ffffffff1660e01b815260040161097a9392919061482c565b600060405180830381600087803b15801561099457600080fd5b505af11580156109a8573d6000803e3d6000fd5b505050506040518061012001604052806002808111156109f1577f4e487b7100000000000000000000000000000000000000000000000000000000600052602160045260246000fd5b81526020018773ffffffffffffffffffffffffffffffffffffffff1681526020013373ffffffffffffffffffffffffffffffffffffffff1681526020018673ffffffffffffffffffffffffffffffffffffffff16815260200185815260200184815260200160001515815260200160001515815260200182815250600f600085815260200190815260200160002060008201518160000160006101000a81548160ff02191690836002811115610ad0577f4e487b7100000000000000000000000000000000000000000000000000000000600052602160045260246000fd5b021790555060208201518160000160016101000a81548173ffffffffffffffffffffffffffffffffffffffff021916908373ffffffffffffffffffffffffffffffffffffffff16021790555060408201518160010160006101000a81548173ffffffffffffffffffffffffffffffffffffffff021916908373ffffffffffffffffffffffffffffffffffffffff16021790555060608201518160020160006101000a81548173ffffffffffffffffffffffffffffffffffffffff021916908373ffffffffffffffffffffffffffffffffffffffff1602179055506080820151816003015560a0820151816004015560c08201518160050160006101000a81548160ff02191690831515021790555060e08201518160050160016101000a81548160ff021916908315150217905550610100820151816006019080519060200190610c1b92919061397f565b50905050505050505050565b606060008054610c3690614f1d565b80601f0160208091040260200160405190810160405280929190818152602001828054610c6290614f1d565b8015610caf5780601f10610c8457610100808354040283529160200191610caf565b820191906000526020600020905b815481529060010190602001808311610c9257829003601f168201915b5050505050905090565b6000610cc482612884565b610d03576040517f08c379a0000000000000000000000000000000000000000000000000000000008152600401610cfa90614b89565b60405180910390fd5b6004600083815260200190815260200160002060009054906101000a900473ffffffffffffffffffffffffffffffffffffffff169050919050565b6000610d49826116dd565b90508073ffffffffffffffffffffffffffffffffffffffff168373ffffffffffffffffffffffffffffffffffffffff161415610dba576040517f08c379a0000000000000000000000000000000000000000000000000000000008152600401610db190614be9565b60405180910390fd5b8073ffffffffffffffffffffffffffffffffffffffff16610dd96128f0565b73ffffffffffffffffffffffffffffffffffffffff161480610e085750610e0781610e026128f0565b61258b565b5b610e47576040517f08c379a0000000000000000000000000000000000000000000000000000000008152600401610e3e90614ae9565b60405180910390fd5b610e5183836128f8565b505050565b6000600980549050905090565b60106020528160005260406000208181548110610e7f57600080fd5b90600052602060002001600091509150505481565b610ea5610e9f6128f0565b826129b1565b610ee4576040517f08c379a0000000000000000000000000000000000000000000000000000000008152600401610edb90614c29565b60405180910390fd5b610eef838383612a8f565b505050565b6000610eff83611c03565b8210610f40576040517f08c379a0000000000000000000000000000000000000000000000000000000008152600401610f37906149c9565b60405180910390fd5b600760008473ffffffffffffffffffffffffffffffffffffffff1673ffffffffffffffffffffffffffffffffffffffff168152602001908152602001600020600083815260200190815260200160002054905092915050565b6000600f600083815260200190815260200160002090503373ffffffffffffffffffffffffffffffffffffffff16610fd0836116dd565b73ffffffffffffffffffffffffffffffffffffffff1614611026576040517f08c379a000000000000000000000000000000000000000000000000000000000815260040161101d906149a9565b60405180910390fd5b600015158160050160019054906101000a900460ff1615151461107e576040517f08c379a000000000000000000000000000000000000000000000000000000000815260040161107590614c69565b60405180910390fd5b60018160050160016101000a81548160ff0219169083151502179055505050565b6110ba83838360405180602001604052806000815250611f98565b505050565b6110d06110ca6128f0565b826129b1565b61110f576040517f08c379a000000000000000000000000000000000000000000000000000000000815260040161110690614ca9565b60405180910390fd5b61111881612ceb565b50565b600f6020528060005260406000206000915090508060000160009054906101000a900460ff16908060000160019054906101000a900473ffffffffffffffffffffffffffffffffffffffff16908060010160009054906101000a900473ffffffffffffffffffffffffffffffffffffffff16908060020160009054906101000a900473ffffffffffffffffffffffffffffffffffffffff16908060030154908060040154908060050160009054906101000a900460ff16908060050160019054906101000a900460ff16908060060180546111f590614f1d565b80601f016020809104026020016040519081016040528092919081815260200182805461122190614f1d565b801561126e5780601f106112435761010080835404028352916020019161126e565b820191906000526020600020905b81548152906001019060200180831161125157829003601f168201915b5050505050905089565b6000611282610e56565b82106112c3576040517f08c379a00000000000000000000000000000000000000000000000000000000081526004016112ba90614c49565b60405180910390fd5b600982815481106112fd577f4e487b7100000000000000000000000000000000000000000000000000000000600052603260045260246000fd5b90600052602060002001549050919050565b600e548161131d9190614db8565b341461135e576040517f08c379a000000000000000000000000000000000000000000000000000000000815260040161135590614c09565b60405180910390fd5b611366612793565b600061137183612854565b9050601060003373ffffffffffffffffffffffffffffffffffffffff1673ffffffffffffffffffffffffffffffffffffffff168152602001908152602001600020819080600181540180825580915050600190039060005260206000200160009091909190915055601160003373ffffffffffffffffffffffffffffffffffffffff1673ffffffffffffffffffffffffffffffffffffffff168152602001908152602001600020600081548092919061142990614f4f565b919050555060405180610120016040528060006002811115611474577f4e487b7100000000000000000000000000000000000000000000000000000000600052602160045260246000fd5b8152602001600073ffffffffffffffffffffffffffffffffffffffff1681526020013373ffffffffffffffffffffffffffffffffffffffff1681526020018473ffffffffffffffffffffffffffffffffffffffff1681526020018281526020018381526020016000151581526020016000151581526020016040518060400160405280600381526020017f4574680000000000000000000000000000000000000000000000000000000000815250815250600f600083815260200190815260200160002060008201518160000160006101000a81548160ff02191690836002811115611589577f4e487b7100000000000000000000000000000000000000000000000000000000600052602160045260246000fd5b021790555060208201518160000160016101000a81548173ffffffffffffffffffffffffffffffffffffffff021916908373ffffffffffffffffffffffffffffffffffffffff16021790555060408201518160010160006101000a81548173ffffffffffffffffffffffffffffffffffffffff021916908373ffffffffffffffffffffffffffffffffffffffff16021790555060608201518160020160006101000a81548173ffffffffffffffffffffffffffffffffffffffff021916908373ffffffffffffffffffffffffffffffffffffffff1602179055506080820151816003015560a0820151816004015560c08201518160050160006101000a81548160ff02191690831515021790555060e08201518160050160016101000a81548160ff0219169083151502179055506101008201518160060190805190602001906116d492919061397f565b50905050505050565b6000806002600084815260200190815260200160002060009054906101000a900473ffffffffffffffffffffffffffffffffffffffff169050600073ffffffffffffffffffffffffffffffffffffffff168173ffffffffffffffffffffffffffffffffffffffff161415611786576040517f08c379a000000000000000000000000000000000000000000000000000000000815260040161177d90614b49565b60405180910390fd5b80915050919050565b6000600f600083815260200190815260200160002090503373ffffffffffffffffffffffffffffffffffffffff166117c6836116dd565b73ffffffffffffffffffffffffffffffffffffffff161461181c576040517f08c379a000000000000000000000000000000000000000000000000000000000815260040161181390614b09565b60405180910390fd5b600015158160050160009054906101000a900460ff16151514611874576040517f08c379a000000000000000000000000000000000000000000000000000000000815260040161186b90614c89565b60405180910390fd5b60018160050160006101000a81548160ff021916908315150217905550600073ffffffffffffffffffffffffffffffffffffffff168160000160019054906101000a900473ffffffffffffffffffffffffffffffffffffffff1673ffffffffffffffffffffffffffffffffffffffff1614156119cd5760008160020160009054906101000a900473ffffffffffffffffffffffffffffffffffffffff1690506000808273ffffffffffffffffffffffffffffffffffffffff16846004015460405161193e906147c5565b60006040518083038185875af1925050503d806000811461197b576040519150601f19603f3d011682016040523d82523d6000602084013e611980565b606091505b5091509150816119c5576040517f08c379a00000000000000000000000000000000000000000000000000000000081526004016119bc90614a49565b60405180910390fd5b505050611bff565b60016002811115611a07577f4e487b7100000000000000000000000000000000000000000000000000000000600052602160045260246000fd5b8160000160009054906101000a900460ff166002811115611a51577f4e487b7100000000000000000000000000000000000000000000000000000000600052602160045260246000fd5b1415611b3c5760008160000160019054906101000a900473ffffffffffffffffffffffffffffffffffffffff1690508073ffffffffffffffffffffffffffffffffffffffff1663a9059cbb8360020160009054906101000a900473ffffffffffffffffffffffffffffffffffffffff1684600401546040518363ffffffff1660e01b8152600401611ae39291906148af565b602060405180830381600087803b158015611afd57600080fd5b505af1158015611b11573d6000803e3d6000fd5b505050506040513d601f19601f82011682018060405250810190611b359190613da6565b5050611bfe565b60008160000160019054906101000a900473ffffffffffffffffffffffffffffffffffffffff1690508073ffffffffffffffffffffffffffffffffffffffff166342842e0e308460020160009054906101000a900473ffffffffffffffffffffffffffffffffffffffff1685600301546040518463ffffffff1660e01b8152600401611bca9392919061482c565b600060405180830381600087803b158015611be457600080fd5b505af1158015611bf8573d6000803e3d6000fd5b50505050505b5b5050565b60008073ffffffffffffffffffffffffffffffffffffffff168273ffffffffffffffffffffffffffffffffffffffff161415611c74576040517f08c379a0000000000000000000000000000000000000000000000000000000008152600401611c6b90614b29565b60405180910390fd5b600360008373ffffffffffffffffffffffffffffffffffffffff1673ffffffffffffffffffffffffffffffffffffffff168152602001908152602001600020549050919050565b611cc36128f0565b73ffffffffffffffffffffffffffffffffffffffff16611ce1611d5b565b73ffffffffffffffffffffffffffffffffffffffff1614611d37576040517f08c379a0000000000000000000000000000000000000000000000000000000008152600401611d2e90614ba9565b60405180910390fd5b611d416000612cf7565b565b60116020528060005260406000206000915090505481565b6000600b60009054906101000a900473ffffffffffffffffffffffffffffffffffffffff16905090565b606060018054611d9490614f1d565b80601f0160208091040260200160405190810160405280929190818152602001828054611dc090614f1d565b8015611e0d5780601f10611de257610100808354040283529160200191611e0d565b820191906000526020600020905b815481529060010190602001808311611df057829003601f168201915b5050505050905090565b611e1f6128f0565b73ffffffffffffffffffffffffffffffffffffffff168273ffffffffffffffffffffffffffffffffffffffff161415611e8d576040517f08c379a0000000000000000000000000000000000000000000000000000000008152600401611e8490614a89565b60405180910390fd5b8060056000611e9a6128f0565b73ffffffffffffffffffffffffffffffffffffffff1673ffffffffffffffffffffffffffffffffffffffff16815260200190815260200160002060008473ffffffffffffffffffffffffffffffffffffffff1673ffffffffffffffffffffffffffffffffffffffff16815260200190815260200160002060006101000a81548160ff0219169083151502179055508173ffffffffffffffffffffffffffffffffffffffff16611f476128f0565b73ffffffffffffffffffffffffffffffffffffffff167f17307eab39ab6107e8899845ad3d59bd9653f200f220920489ca2b5937696c3183604051611f8c91906148d8565b60405180910390a35050565b611fa9611fa36128f0565b836129b1565b611fe8576040517f08c379a0000000000000000000000000000000000000000000000000000000008152600401611fdf90614c29565b60405180910390fd5b611ff484848484612dbd565b50505050565b606073__$706acb30bebf408547067f7bc9e935b36e$__63c2b946f973f39fd6e51aad88f6f4ce6ab8827279cfffb922668060006040518463ffffffff1660e01b815260040161204c939291906147f5565b60006040518083038186803b15801561206457600080fd5b505af4158015612078573d6000803e3d6000fd5b505050506040513d6000823e3d601f19601f820116820180604052508101906120a19190613e21565b9050919050565b600d60205281600052604060002081815481106120c457600080fd5b90600052602060002001600091509150505481565b600e5481565b600e543414612123576040517f08c379a000000000000000000000000000000000000000000000000000000000815260040161211a90614ac9565b60405180910390fd5b61212b612793565b600061213682612854565b9050601060003373ffffffffffffffffffffffffffffffffffffffff1673ffffffffffffffffffffffffffffffffffffffff168152602001908152602001600020819080600181540180825580915050600190039060005260206000200160009091909190915055601160003373ffffffffffffffffffffffffffffffffffffffff1673ffffffffffffffffffffffffffffffffffffffff16815260200190815260200160002060008154809291906121ee90614f4f565b9190505550600084905060008173ffffffffffffffffffffffffffffffffffffffff166395d89b416040518163ffffffff1660e01b815260040160006040518083038186803b15801561224057600080fd5b505afa158015612254573d6000803e3d6000fd5b505050506040513d6000823e3d601f19601f8201168201806040525081019061227d9190613e21565b90508173ffffffffffffffffffffffffffffffffffffffff166323b872dd3330886040518463ffffffff1660e01b81526004016122bc9392919061482c565b602060405180830381600087803b1580156122d657600080fd5b505af11580156122ea573d6000803e3d6000fd5b505050506040513d601f19601f8201168201806040525081019061230e9190613da6565b5060405180610120016040528060016002811115612355577f4e487b7100000000000000000000000000000000000000000000000000000000600052602160045260246000fd5b81526020018773ffffffffffffffffffffffffffffffffffffffff1681526020013373ffffffffffffffffffffffffffffffffffffffff1681526020018573ffffffffffffffffffffffffffffffffffffffff16815260200184815260200186815260200160001515815260200160001515815260200182815250600f600085815260200190815260200160002060008201518160000160006101000a81548160ff02191690836002811115612434577f4e487b7100000000000000000000000000000000000000000000000000000000600052602160045260246000fd5b021790555060208201518160000160016101000a81548173ffffffffffffffffffffffffffffffffffffffff021916908373ffffffffffffffffffffffffffffffffffffffff16021790555060408201518160010160006101000a81548173ffffffffffffffffffffffffffffffffffffffff021916908373ffffffffffffffffffffffffffffffffffffffff16021790555060608201518160020160006101000a81548173ffffffffffffffffffffffffffffffffffffffff021916908373ffffffffffffffffffffffffffffffffffffffff1602179055506080820151816003015560a0820151816004015560c08201518160050160006101000a81548160ff02191690831515021790555060e08201518160050160016101000a81548160ff02191690831515021790555061010082015181600601908051906020019061257f92919061397f565b50905050505050505050565b6000600560008473ffffffffffffffffffffffffffffffffffffffff1673ffffffffffffffffffffffffffffffffffffffff16815260200190815260200160002060008373ffffffffffffffffffffffffffffffffffffffff1673ffffffffffffffffffffffffffffffffffffffff16815260200190815260200160002060009054906101000a900460ff16905092915050565b565b6126296128f0565b73ffffffffffffffffffffffffffffffffffffffff16612647611d5b565b73ffffffffffffffffffffffffffffffffffffffff161461269d576040517f08c379a000000000000000000000000000000000000000000000000000000000815260040161269490614ba9565b60405180910390fd5b600073ffffffffffffffffffffffffffffffffffffffff168173ffffffffffffffffffffffffffffffffffffffff16141561270d576040517f08c379a000000000000000000000000000000000000000000000000000000000815260040161270490614a09565b60405180910390fd5b61271681612cf7565b50565b60007f780e9d63000000000000000000000000000000000000000000000000000000007bffffffffffffffffffffffffffffffffffffffffffffffffffffffff1916827bffffffffffffffffffffffffffffffffffffffffffffffffffffffff1916148061278c575061278b82612e19565b5b9050919050565b600061279d611d5b565b90506000808273ffffffffffffffffffffffffffffffffffffffff16600e546040516127c8906147c5565b60006040518083038185875af1925050503d8060008114612805576040519150601f19603f3d011682016040523d82523d6000602084013e61280a565b606091505b50915091508161284f576040517f08c379a000000000000000000000000000000000000000000000000000000000815260040161284690614a49565b60405180910390fd5b505050565b6000612860600c612efb565b6128738261286e600c612f11565b612f1f565b61287d600c612f11565b9050919050565b60008073ffffffffffffffffffffffffffffffffffffffff166002600084815260200190815260200160002060009054906101000a900473ffffffffffffffffffffffffffffffffffffffff1673ffffffffffffffffffffffffffffffffffffffff1614159050919050565b600033905090565b816004600083815260200190815260200160002060006101000a81548173ffffffffffffffffffffffffffffffffffffffff021916908373ffffffffffffffffffffffffffffffffffffffff160217905550808273ffffffffffffffffffffffffffffffffffffffff1661296b836116dd565b73ffffffffffffffffffffffffffffffffffffffff167f8c5be1e5ebec7d5bd14f71427d1e84f3dd0314c0f7b2291e5b200ac8c7c3b92560405160405180910390a45050565b60006129bc82612884565b6129fb576040517f08c379a00000000000000000000000000000000000000000000000000000000081526004016129f290614aa9565b60405180910390fd5b6000612a06836116dd565b90508073ffffffffffffffffffffffffffffffffffffffff168473ffffffffffffffffffffffffffffffffffffffff161480612a7557508373ffffffffffffffffffffffffffffffffffffffff16612a5d84610cb9565b73ffffffffffffffffffffffffffffffffffffffff16145b80612a865750612a85818561258b565b5b91505092915050565b8273ffffffffffffffffffffffffffffffffffffffff16612aaf826116dd565b73ffffffffffffffffffffffffffffffffffffffff1614612b05576040517f08c379a0000000000000000000000000000000000000000000000000000000008152600401612afc90614bc9565b60405180910390fd5b600073ffffffffffffffffffffffffffffffffffffffff168273ffffffffffffffffffffffffffffffffffffffff161415612b75576040517f08c379a0000000000000000000000000000000000000000000000000000000008152600401612b6c90614a69565b60405180910390fd5b612b80838383612f3d565b612b8b6000826128f8565b6001600360008573ffffffffffffffffffffffffffffffffffffffff1673ffffffffffffffffffffffffffffffffffffffff1681526020019081526020016000206000828254612bdb9190614e0e565b925050819055506001600360008473ffffffffffffffffffffffffffffffffffffffff1673ffffffffffffffffffffffffffffffffffffffff1681526020019081526020016000206000828254612c329190614db8565b92505081905550816002600083815260200190815260200160002060006101000a81548173ffffffffffffffffffffffffffffffffffffffff021916908373ffffffffffffffffffffffffffffffffffffffff160217905550808273ffffffffffffffffffffffffffffffffffffffff168473ffffffffffffffffffffffffffffffffffffffff167fddf252ad1be2c89b69c2b068fc378daa952ba7f163c4a11628f55a4df523b3ef60405160405180910390a4505050565b612cf481612f4d565b50565b6000600b60009054906101000a900473ffffffffffffffffffffffffffffffffffffffff16905081600b60006101000a81548173ffffffffffffffffffffffffffffffffffffffff021916908373ffffffffffffffffffffffffffffffffffffffff1602179055508173ffffffffffffffffffffffffffffffffffffffff168173ffffffffffffffffffffffffffffffffffffffff167f8be0079c531659141344cd1fd0a4f28419497f9722a3daafe3b4186f6b6457e060405160405180910390a35050565b612dc8848484612a8f565b612dd484848484612fa0565b612e13576040517f08c379a0000000000000000000000000000000000000000000000000000000008152600401612e0a906149e9565b60405180910390fd5b50505050565b60007f80ac58cd000000000000000000000000000000000000000000000000000000007bffffffffffffffffffffffffffffffffffffffffffffffffffffffff1916827bffffffffffffffffffffffffffffffffffffffffffffffffffffffff19161480612ee457507f5b5e139f000000000000000000000000000000000000000000000000000000007bffffffffffffffffffffffffffffffffffffffffffffffffffffffff1916827bffffffffffffffffffffffffffffffffffffffffffffffffffffffff1916145b80612ef45750612ef382613137565b5b9050919050565b6001816000016000828254019250508190555050565b600081600001549050919050565b612f398282604051806020016040528060008152506131a1565b5050565b612f488383836131fc565b505050565b612f5681613310565b6000600660008381526020019081526020016000208054612f7690614f1d565b905014612f9d57600660008281526020019081526020016000206000612f9c9190613a05565b5b50565b6000612fc18473ffffffffffffffffffffffffffffffffffffffff16613421565b1561312a578373ffffffffffffffffffffffffffffffffffffffff1663150b7a02612fea6128f0565b8786866040518563ffffffff1660e01b815260040161300c9493929190614863565b602060405180830381600087803b15801561302657600080fd5b505af192505050801561305757506040513d601f19601f820116820180604052508101906130549190613df8565b60015b6130da573d8060008114613087576040519150601f19603f3d011682016040523d82523d6000602084013e61308c565b606091505b506000815114156130d2576040517f08c379a00000000000000000000000000000000000000000000000000000000081526004016130c9906149e9565b60405180910390fd5b805181602001fd5b63150b7a0260e01b7bffffffffffffffffffffffffffffffffffffffffffffffffffffffff1916817bffffffffffffffffffffffffffffffffffffffffffffffffffffffff19161491505061312f565b600190505b949350505050565b60007f01ffc9a7000000000000000000000000000000000000000000000000000000007bffffffffffffffffffffffffffffffffffffffffffffffffffffffff1916827bffffffffffffffffffffffffffffffffffffffffffffffffffffffff1916149050919050565b6131ab8383613434565b6131b86000848484612fa0565b6131f7576040517f08c379a00000000000000000000000000000000000000000000000000000000081526004016131ee906149e9565b60405180910390fd5b505050565b613207838383613602565b600073ffffffffffffffffffffffffffffffffffffffff168373ffffffffffffffffffffffffffffffffffffffff16141561324a5761324581613607565b613289565b8173ffffffffffffffffffffffffffffffffffffffff168373ffffffffffffffffffffffffffffffffffffffff1614613288576132878382613650565b5b5b600073ffffffffffffffffffffffffffffffffffffffff168273ffffffffffffffffffffffffffffffffffffffff1614156132cc576132c7816137bd565b61330b565b8273ffffffffffffffffffffffffffffffffffffffff168273ffffffffffffffffffffffffffffffffffffffff161461330a576133098282613900565b5b5b505050565b600061331b826116dd565b905061332981600084612f3d565b6133346000836128f8565b6001600360008373ffffffffffffffffffffffffffffffffffffffff1673ffffffffffffffffffffffffffffffffffffffff16815260200190815260200160002060008282546133849190614e0e565b925050819055506002600083815260200190815260200160002060006101000a81549073ffffffffffffffffffffffffffffffffffffffff021916905581600073ffffffffffffffffffffffffffffffffffffffff168273ffffffffffffffffffffffffffffffffffffffff167fddf252ad1be2c89b69c2b068fc378daa952ba7f163c4a11628f55a4df523b3ef60405160405180910390a45050565b600080823b905060008111915050919050565b600073ffffffffffffffffffffffffffffffffffffffff168273ffffffffffffffffffffffffffffffffffffffff1614156134a4576040517f08c379a000000000000000000000000000000000000000000000000000000000815260040161349b90614b69565b60405180910390fd5b6134ad81612884565b156134ed576040517f08c379a00000000000000000000000000000000000000000000000000000000081526004016134e490614a29565b60405180910390fd5b6134f960008383612f3d565b6001600360008473ffffffffffffffffffffffffffffffffffffffff1673ffffffffffffffffffffffffffffffffffffffff16815260200190815260200160002060008282546135499190614db8565b92505081905550816002600083815260200190815260200160002060006101000a81548173ffffffffffffffffffffffffffffffffffffffff021916908373ffffffffffffffffffffffffffffffffffffffff160217905550808273ffffffffffffffffffffffffffffffffffffffff16600073ffffffffffffffffffffffffffffffffffffffff167fddf252ad1be2c89b69c2b068fc378daa952ba7f163c4a11628f55a4df523b3ef60405160405180910390a45050565b505050565b600980549050600a600083815260200190815260200160002081905550600981908060018154018082558091505060019003906000526020600020016000909190919091505550565b6000600161365d84611c03565b6136679190614e0e565b905060006008600084815260200190815260200160002054905081811461374c576000600760008673ffffffffffffffffffffffffffffffffffffffff1673ffffffffffffffffffffffffffffffffffffffff168152602001908152602001600020600084815260200190815260200160002054905080600760008773ffffffffffffffffffffffffffffffffffffffff1673ffffffffffffffffffffffffffffffffffffffff168152602001908152602001600020600084815260200190815260200160002081905550816008600083815260200190815260200160002081905550505b6008600084815260200190815260200160002060009055600760008573ffffffffffffffffffffffffffffffffffffffff1673ffffffffffffffffffffffffffffffffffffffff16815260200190815260200160002060008381526020019081526020016000206000905550505050565b600060016009805490506137d19190614e0e565b90506000600a6000848152602001908152602001600020549050600060098381548110613827577f4e487b7100000000000000000000000000000000000000000000000000000000600052603260045260246000fd5b90600052602060002001549050806009838154811061386f577f4e487b7100000000000000000000000000000000000000000000000000000000600052603260045260246000fd5b906000526020600020018190555081600a600083815260200190815260200160002081905550600a60008581526020019081526020016000206000905560098054806138e4577f4e487b7100000000000000000000000000000000000000000000000000000000600052603160045260246000fd5b6001900381819060005260206000200160009055905550505050565b600061390b83611c03565b905081600760008573ffffffffffffffffffffffffffffffffffffffff1673ffffffffffffffffffffffffffffffffffffffff168152602001908152602001600020600083815260200190815260200160002081905550806008600084815260200190815260200160002081905550505050565b82805461398b90614f1d565b90600052602060002090601f0160209004810192826139ad57600085556139f4565b82601f106139c657805160ff19168380011785556139f4565b828001600101855582156139f4579182015b828111156139f35782518255916020019190600101906139d8565b5b509050613a019190613a45565b5090565b508054613a1190614f1d565b6000825580601f10613a235750613a42565b601f016020900490600052602060002090810190613a419190613a45565b5b50565b5b80821115613a5e576000816000905550600101613a46565b5090565b6000613a75613a7084614d15565b614ce4565b905082815260208101848484011115613a8d57600080fd5b613a98848285614edb565b509392505050565b6000613ab3613aae84614d45565b614ce4565b905082815260208101848484011115613acb57600080fd5b613ad6848285614eea565b509392505050565b600081359050613aed81615079565b92915050565b600081359050613b0281615090565b92915050565b600081519050613b1781615090565b92915050565b600081359050613b2c816150a7565b92915050565b600081519050613b41816150a7565b92915050565b600082601f830112613b5857600080fd5b8135613b68848260208601613a62565b91505092915050565b600082601f830112613b8257600080fd5b8151613b92848260208601613aa0565b91505092915050565b600081359050613baa816150be565b92915050565b600060208284031215613bc257600080fd5b6000613bd084828501613ade565b91505092915050565b60008060408385031215613bec57600080fd5b6000613bfa85828601613ade565b9250506020613c0b85828601613ade565b9150509250929050565b600080600060608486031215613c2a57600080fd5b6000613c3886828701613ade565b9350506020613c4986828701613ade565b9250506040613c5a86828701613b9b565b9150509250925092565b60008060008060808587031215613c7a57600080fd5b6000613c8887828801613ade565b9450506020613c9987828801613ade565b9350506040613caa87828801613b9b565b925050606085013567ffffffffffffffff811115613cc757600080fd5b613cd387828801613b47565b91505092959194509250565b60008060408385031215613cf257600080fd5b6000613d0085828601613ade565b9250506020613d1185828601613af3565b9150509250929050565b60008060408385031215613d2e57600080fd5b6000613d3c85828601613ade565b9250506020613d4d85828601613b9b565b9150509250929050565b600080600060608486031215613d6c57600080fd5b6000613d7a86828701613ade565b9350506020613d8b86828701613b9b565b9250506040613d9c86828701613ade565b9150509250925092565b600060208284031215613db857600080fd5b6000613dc684828501613b08565b91505092915050565b600060208284031215613de157600080fd5b6000613def84828501613b1d565b91505092915050565b600060208284031215613e0a57600080fd5b6000613e1884828501613b32565b91505092915050565b600060208284031215613e3357600080fd5b600082015167ffffffffffffffff811115613e4d57600080fd5b613e5984828501613b71565b91505092915050565b600060208284031215613e7457600080fd5b6000613e8284828501613b9b565b91505092915050565b613e9481614e42565b82525050565b613ea381614e42565b82525050565b613eb281614e54565b82525050565b613ec181614e54565b82525050565b6000613ed282614d75565b613edc8185614d8b565b9350613eec818560208601614eea565b613ef581615054565b840191505092915050565b613f0981614ec9565b82525050565b6000613f1a82614d80565b613f248185614da7565b9350613f34818560208601614eea565b613f3d81615054565b840191505092915050565b6000613f55601483614da7565b91507f746869732069736e7420796f7572206f726465720000000000000000000000006000830152602082019050919050565b6000613f95602b83614da7565b91507f455243373231456e756d657261626c653a206f776e657220696e646578206f7560008301527f74206f6620626f756e64730000000000000000000000000000000000000000006020830152604082019050919050565b6000613ffb603283614da7565b91507f4552433732313a207472616e7366657220746f206e6f6e20455243373231526560008301527f63656976657220696d706c656d656e74657200000000000000000000000000006020830152604082019050919050565b6000614061602683614da7565b91507f4f776e61626c653a206e6577206f776e657220697320746865207a65726f206160008301527f64647265737300000000000000000000000000000000000000000000000000006020830152604082019050919050565b60006140c7601c83614da7565b91507f4552433732313a20746f6b656e20616c7265616479206d696e746564000000006000830152602082019050919050565b6000614107601483614da7565b91507f4661696c656420746f2073656e642045746865720000000000000000000000006000830152602082019050919050565b6000614147602483614da7565b91507f4552433732313a207472616e7366657220746f20746865207a65726f2061646460008301527f72657373000000000000000000000000000000000000000000000000000000006020830152604082019050919050565b60006141ad601983614da7565b91507f4552433732313a20617070726f766520746f2063616c6c6572000000000000006000830152602082019050919050565b60006141ed602c83614da7565b91507f4552433732313a206f70657261746f7220717565727920666f72206e6f6e657860008301527f697374656e7420746f6b656e00000000000000000000000000000000000000006020830152604082019050919050565b6000614253600f83614da7565b91507f706c656173652073656e642066656500000000000000000000000000000000006000830152602082019050919050565b6000614293603883614da7565b91507f4552433732313a20617070726f76652063616c6c6572206973206e6f74206f7760008301527f6e6572206e6f7220617070726f76656420666f7220616c6c00000000000000006020830152604082019050919050565b60006142f9601783614da7565b91507f796f752063616e74206f70656e2074686973206f6e65210000000000000000006000830152602082019050919050565b6000614339602a83614da7565b91507f4552433732313a2062616c616e636520717565727920666f7220746865207a6560008301527f726f2061646472657373000000000000000000000000000000000000000000006020830152604082019050919050565b600061439f602983614da7565b91507f4552433732313a206f776e657220717565727920666f72206e6f6e657869737460008301527f656e7420746f6b656e00000000000000000000000000000000000000000000006020830152604082019050919050565b6000614405602083614da7565b91507f4552433732313a206d696e7420746f20746865207a65726f20616464726573736000830152602082019050919050565b6000614445602c83614da7565b91507f4552433732313a20617070726f76656420717565727920666f72206e6f6e657860008301527f697374656e7420746f6b656e00000000000000000000000000000000000000006020830152604082019050919050565b60006144ab602083614da7565b91507f4f776e61626c653a2063616c6c6572206973206e6f7420746865206f776e65726000830152602082019050919050565b60006144eb602983614da7565b91507f4552433732313a207472616e73666572206f6620746f6b656e2074686174206960008301527f73206e6f74206f776e00000000000000000000000000000000000000000000006020830152604082019050919050565b6000614551602183614da7565b91507f4552433732313a20617070726f76616c20746f2063757272656e74206f776e6560008301527f72000000000000000000000000000000000000000000000000000000000000006020830152604082019050919050565b60006145b7601a83614da7565b91507f706c656173652073656e6420636f727265637420616d6f756e740000000000006000830152602082019050919050565b60006145f7600083614d9c565b9150600082019050919050565b6000614611603183614da7565b91507f4552433732313a207472616e736665722063616c6c6572206973206e6f74206f60008301527f776e6572206e6f7220617070726f7665640000000000000000000000000000006020830152604082019050919050565b6000614677602c83614da7565b91507f455243373231456e756d657261626c653a20676c6f62616c20696e646578206f60008301527f7574206f6620626f756e647300000000000000000000000000000000000000006020830152604082019050919050565b60006146dd601383614da7565b91507f616c72656164792073616964207468616e6b73000000000000000000000000006000830152602082019050919050565b600061471d600e83614da7565b91507f616c7265616479206f70656e65640000000000000000000000000000000000006000830152602082019050919050565b600061475d603083614da7565b91507f4552433732314275726e61626c653a2063616c6c6572206973206e6f74206f7760008301527f6e6572206e6f7220617070726f766564000000000000000000000000000000006020830152604082019050919050565b6147bf81614ebf565b82525050565b60006147d0826145ea565b9150819050919050565b60006020820190506147ef6000830184613e8b565b92915050565b600060608201905061480a6000830186613e9a565b6148176020830185613e9a565b6148246040830184613eb8565b949350505050565b60006060820190506148416000830186613e8b565b61484e6020830185613e8b565b61485b60408301846147b6565b949350505050565b60006080820190506148786000830187613e8b565b6148856020830186613e8b565b61489260408301856147b6565b81810360608301526148a48184613ec7565b905095945050505050565b60006040820190506148c46000830185613e8b565b6148d160208301846147b6565b9392505050565b60006020820190506148ed6000830184613ea9565b92915050565b600061012082019050614909600083018c613f00565b614916602083018b613e8b565b614923604083018a613e8b565b6149306060830189613e8b565b61493d60808301886147b6565b61494a60a08301876147b6565b61495760c0830186613ea9565b61496460e0830185613ea9565b8181036101008301526149778184613f0f565b90509a9950505050505050505050565b600060208201905081810360008301526149a18184613f0f565b905092915050565b600060208201905081810360008301526149c281613f48565b9050919050565b600060208201905081810360008301526149e281613f88565b9050919050565b60006020820190508181036000830152614a0281613fee565b9050919050565b60006020820190508181036000830152614a2281614054565b9050919050565b60006020820190508181036000830152614a42816140ba565b9050919050565b60006020820190508181036000830152614a62816140fa565b9050919050565b60006020820190508181036000830152614a828161413a565b9050919050565b60006020820190508181036000830152614aa2816141a0565b9050919050565b60006020820190508181036000830152614ac2816141e0565b9050919050565b60006020820190508181036000830152614ae281614246565b9050919050565b60006020820190508181036000830152614b0281614286565b9050919050565b60006020820190508181036000830152614b22816142ec565b9050919050565b60006020820190508181036000830152614b428161432c565b9050919050565b60006020820190508181036000830152614b6281614392565b9050919050565b60006020820190508181036000830152614b82816143f8565b9050919050565b60006020820190508181036000830152614ba281614438565b9050919050565b60006020820190508181036000830152614bc28161449e565b9050919050565b60006020820190508181036000830152614be2816144de565b9050919050565b60006020820190508181036000830152614c0281614544565b9050919050565b60006020820190508181036000830152614c22816145aa565b9050919050565b60006020820190508181036000830152614c4281614604565b9050919050565b60006020820190508181036000830152614c628161466a565b9050919050565b60006020820190508181036000830152614c82816146d0565b9050919050565b60006020820190508181036000830152614ca281614710565b9050919050565b60006020820190508181036000830152614cc281614750565b9050919050565b6000602082019050614cde60008301846147b6565b92915050565b6000604051905081810181811067ffffffffffffffff82111715614d0b57614d0a615025565b5b8060405250919050565b600067ffffffffffffffff821115614d3057614d2f615025565b5b601f19601f8301169050602081019050919050565b600067ffffffffffffffff821115614d6057614d5f615025565b5b601f19601f8301169050602081019050919050565b600081519050919050565b600081519050919050565b600082825260208201905092915050565b600081905092915050565b600082825260208201905092915050565b6000614dc382614ebf565b9150614dce83614ebf565b9250827fffffffffffffffffffffffffffffffffffffffffffffffffffffffffffffffff03821115614e0357614e02614f98565b5b828201905092915050565b6000614e1982614ebf565b9150614e2483614ebf565b925082821015614e3757614e36614f98565b5b828203905092915050565b6000614e4d82614e9f565b9050919050565b60008115159050919050565b60007fffffffff0000000000000000000000000000000000000000000000000000000082169050919050565b6000819050614e9a82615065565b919050565b600073ffffffffffffffffffffffffffffffffffffffff82169050919050565b6000819050919050565b6000614ed482614e8c565b9050919050565b82818337600083830152505050565b60005b83811015614f08578082015181840152602081019050614eed565b83811115614f17576000848401525b50505050565b60006002820490506001821680614f3557607f821691505b60208210811415614f4957614f48614ff6565b5b50919050565b6000614f5a82614ebf565b91507fffffffffffffffffffffffffffffffffffffffffffffffffffffffffffffffff821415614f8d57614f8c614f98565b5b600182019050919050565b7f4e487b7100000000000000000000000000000000000000000000000000000000600052601160045260246000fd5b7f4e487b7100000000000000000000000000000000000000000000000000000000600052602160045260246000fd5b7f4e487b7100000000000000000000000000000000000000000000000000000000600052602260045260246000fd5b7f4e487b7100000000000000000000000000000000000000000000000000000000600052604160045260246000fd5b6000601f19601f8301169050919050565b6003811061507657615075614fc7565b5b50565b61508281614e42565b811461508d57600080fd5b50565b61509981614e54565b81146150a457600080fd5b50565b6150b081614e60565b81146150bb57600080fd5b50565b6150c781614ebf565b81146150d257600080fd5b5056fea2646970667358221220840f039b1d41a74061620ed5487086981a26c270b6dc0c273b80d9e87496a45064736f6c63430008000033",
  "linkReferences": {
    "contracts/MetadataManager.sol": {
      "MetadataManager": [
        {
          "length": 20,
          "start": 9053
        }
      ]
    }
  },
  "deployedLinkReferences": {
    "contracts/MetadataManager.sol": {
      "MetadataManager": [
        {
          "length": 20,
          "start": 8190
        }
      ]
    }
  }
}