{
  "_format": "hh-sol-artifact-1",
  "contractName": "HappyBirthday",
  "sourceName": "contracts/HappyBirthday.sol",
  "abi": [
    {
      "inputs": [
        {
          "internalType": "uint256",
          "name": "_fee",
          "type": "uint256"
        }
      ],
      "stateMutability": "nonpayable",
      "type": "constructor"
    },
    {
      "anonymous": false,
      "inputs": [
        {
          "indexed": true,
          "internalType": "address",
          "name": "owner",
          "type": "address"
        },
        {
          "indexed": true,
          "internalType": "address",
          "name": "approved",
          "type": "address"
        },
        {
          "indexed": true,
          "internalType": "uint256",
          "name": "tokenId",
          "type": "uint256"
        }
      ],
      "name": "Approval",
      "type": "event"
    },
    {
      "anonymous": false,
      "inputs": [
        {
          "indexed": true,
          "internalType": "address",
          "name": "owner",
          "type": "address"
        },
        {
          "indexed": true,
          "internalType": "address",
          "name": "operator",
          "type": "address"
        },
        {
          "indexed": false,
          "internalType": "bool",
          "name": "approved",
          "type": "bool"
        }
      ],
      "name": "ApprovalForAll",
      "type": "event"
    },
    {
      "anonymous": false,
      "inputs": [
        {
          "indexed": true,
          "internalType": "address",
          "name": "previousOwner",
          "type": "address"
        },
        {
          "indexed": true,
          "internalType": "address",
          "name": "newOwner",
          "type": "address"
        }
      ],
      "name": "OwnershipTransferred",
      "type": "event"
    },
    {
      "anonymous": false,
      "inputs": [
        {
          "indexed": true,
          "internalType": "address",
          "name": "from",
          "type": "address"
        },
        {
          "indexed": true,
          "internalType": "address",
          "name": "to",
          "type": "address"
        },
        {
          "indexed": true,
          "internalType": "uint256",
          "name": "tokenId",
          "type": "uint256"
        }
      ],
      "name": "Transfer",
      "type": "event"
    },
    {
      "inputs": [
        {
          "internalType": "address",
          "name": "",
          "type": "address"
        },
        {
          "internalType": "uint256",
          "name": "",
          "type": "uint256"
        }
      ],
      "name": "addressToId",
      "outputs": [
        {
          "internalType": "uint256",
          "name": "",
          "type": "uint256"
        }
      ],
      "stateMutability": "view",
      "type": "function"
    },
    {
      "inputs": [
        {
          "internalType": "address",
          "name": "to",
          "type": "address"
        },
        {
          "internalType": "uint256",
          "name": "tokenId",
          "type": "uint256"
        }
      ],
      "name": "approve",
      "outputs": [],
      "stateMutability": "nonpayable",
      "type": "function"
    },
    {
      "inputs": [
        {
          "internalType": "address",
          "name": "owner",
          "type": "address"
        }
      ],
      "name": "balanceOf",
      "outputs": [
        {
          "internalType": "uint256",
          "name": "",
          "type": "uint256"
        }
      ],
      "stateMutability": "view",
      "type": "function"
    },
    {
      "inputs": [
        {
          "internalType": "uint256",
          "name": "tokenId",
          "type": "uint256"
        }
      ],
      "name": "burn",
      "outputs": [],
      "stateMutability": "nonpayable",
      "type": "function"
    },
    {
      "inputs": [],
      "name": "fee",
      "outputs": [
        {
          "internalType": "uint256",
          "name": "",
          "type": "uint256"
        }
      ],
      "stateMutability": "view",
      "type": "function"
    },
    {
      "inputs": [
        {
          "internalType": "uint256",
          "name": "tokenId",
          "type": "uint256"
        }
      ],
      "name": "getApproved",
      "outputs": [
        {
          "internalType": "address",
          "name": "",
          "type": "address"
        }
      ],
      "stateMutability": "view",
      "type": "function"
    },
    {
      "inputs": [
        {
          "internalType": "address",
          "name": "tokenAddress",
          "type": "address"
        },
        {
          "internalType": "uint256",
          "name": "amount",
          "type": "uint256"
        },
        {
          "internalType": "address",
          "name": "recipient",
          "type": "address"
        }
      ],
      "name": "giftErc20",
      "outputs": [],
      "stateMutability": "payable",
      "type": "function"
    },
    {
      "inputs": [
        {
          "internalType": "address",
          "name": "tokenAddress",
          "type": "address"
        },
        {
          "internalType": "address",
          "name": "recipient",
          "type": "address"
        },
        {
          "internalType": "uint256",
          "name": "tokenId",
          "type": "uint256"
        }
      ],
      "name": "giftErc721",
      "outputs": [],
      "stateMutability": "payable",
      "type": "function"
    },
    {
      "inputs": [
        {
          "internalType": "address",
          "name": "recipient",
          "type": "address"
        },
        {
          "internalType": "uint256",
          "name": "amount",
          "type": "uint256"
        }
      ],
      "name": "giftEth",
      "outputs": [],
      "stateMutability": "payable",
      "type": "function"
    },
    {
      "inputs": [
        {
          "internalType": "uint256",
          "name": "",
          "type": "uint256"
        }
      ],
      "name": "giftIdtoGift",
      "outputs": [
        {
          "internalType": "address",
          "name": "asset",
          "type": "address"
        },
        {
          "internalType": "enum HappyBirthday.GiftType",
          "name": "giftType",
          "type": "uint8"
        },
        {
          "internalType": "address",
          "name": "sender",
          "type": "address"
        },
        {
          "internalType": "address",
          "name": "recipient",
          "type": "address"
        },
        {
          "internalType": "uint256",
          "name": "tokenId",
          "type": "uint256"
        },
        {
          "internalType": "uint256",
          "name": "amount",
          "type": "uint256"
        },
        {
          "internalType": "bool",
          "name": "opened",
          "type": "bool"
        }
      ],
      "stateMutability": "view",
      "type": "function"
    },
    {
      "inputs": [
        {
          "internalType": "uint256",
          "name": "",
          "type": "uint256"
        }
      ],
      "name": "idToSaidThanks",
      "outputs": [
        {
          "internalType": "bool",
          "name": "",
          "type": "bool"
        }
      ],
      "stateMutability": "view",
      "type": "function"
    },
    {
      "inputs": [
        {
          "internalType": "address",
          "name": "owner",
          "type": "address"
        },
        {
          "internalType": "address",
          "name": "operator",
          "type": "address"
        }
      ],
      "name": "isApprovedForAll",
      "outputs": [
        {
          "internalType": "bool",
          "name": "",
          "type": "bool"
        }
      ],
      "stateMutability": "view",
      "type": "function"
    },
    {
      "inputs": [
        {
          "internalType": "uint256",
          "name": "",
          "type": "uint256"
        }
      ],
      "name": "isOpened",
      "outputs": [
        {
          "internalType": "bool",
          "name": "",
          "type": "bool"
        }
      ],
      "stateMutability": "view",
      "type": "function"
    },
    {
      "inputs": [],
      "name": "name",
      "outputs": [
        {
          "internalType": "string",
          "name": "",
          "type": "string"
        }
      ],
      "stateMutability": "view",
      "type": "function"
    },
    {
      "inputs": [
        {
          "internalType": "uint256",
          "name": "id",
          "type": "uint256"
        }
      ],
      "name": "open",
      "outputs": [],
      "stateMutability": "nonpayable",
      "type": "function"
    },
    {
      "inputs": [],
      "name": "owner",
      "outputs": [
        {
          "internalType": "address",
          "name": "",
          "type": "address"
        }
      ],
      "stateMutability": "view",
      "type": "function"
    },
    {
      "inputs": [
        {
          "internalType": "uint256",
          "name": "tokenId",
          "type": "uint256"
        }
      ],
      "name": "ownerOf",
      "outputs": [
        {
          "internalType": "address",
          "name": "",
          "type": "address"
        }
      ],
      "stateMutability": "view",
      "type": "function"
    },
    {
      "inputs": [],
      "name": "renounceOwnership",
      "outputs": [],
      "stateMutability": "nonpayable",
      "type": "function"
    },
    {
      "inputs": [
        {
          "internalType": "address",
          "name": "from",
          "type": "address"
        },
        {
          "internalType": "address",
          "name": "to",
          "type": "address"
        },
        {
          "internalType": "uint256",
          "name": "tokenId",
          "type": "uint256"
        }
      ],
      "name": "safeTransferFrom",
      "outputs": [],
      "stateMutability": "nonpayable",
      "type": "function"
    },
    {
      "inputs": [
        {
          "internalType": "address",
          "name": "from",
          "type": "address"
        },
        {
          "internalType": "address",
          "name": "to",
          "type": "address"
        },
        {
          "internalType": "uint256",
          "name": "tokenId",
          "type": "uint256"
        },
        {
          "internalType": "bytes",
          "name": "_data",
          "type": "bytes"
        }
      ],
      "name": "safeTransferFrom",
      "outputs": [],
      "stateMutability": "nonpayable",
      "type": "function"
    },
    {
      "inputs": [
        {
          "internalType": "uint256",
          "name": "id",
          "type": "uint256"
        }
      ],
      "name": "sayThanks",
      "outputs": [],
      "stateMutability": "nonpayable",
      "type": "function"
    },
    {
      "inputs": [
        {
          "internalType": "address",
          "name": "operator",
          "type": "address"
        },
        {
          "internalType": "bool",
          "name": "approved",
          "type": "bool"
        }
      ],
      "name": "setApprovalForAll",
      "outputs": [],
      "stateMutability": "nonpayable",
      "type": "function"
    },
    {
      "inputs": [
        {
          "internalType": "bytes4",
          "name": "interfaceId",
          "type": "bytes4"
        }
      ],
      "name": "supportsInterface",
      "outputs": [
        {
          "internalType": "bool",
          "name": "",
          "type": "bool"
        }
      ],
      "stateMutability": "view",
      "type": "function"
    },
    {
      "inputs": [],
      "name": "symbol",
      "outputs": [
        {
          "internalType": "string",
          "name": "",
          "type": "string"
        }
      ],
      "stateMutability": "view",
      "type": "function"
    },
    {
      "inputs": [
        {
          "internalType": "uint256",
          "name": "index",
          "type": "uint256"
        }
      ],
      "name": "tokenByIndex",
      "outputs": [
        {
          "internalType": "uint256",
          "name": "",
          "type": "uint256"
        }
      ],
      "stateMutability": "view",
      "type": "function"
    },
    {
      "inputs": [
        {
          "internalType": "address",
          "name": "owner",
          "type": "address"
        },
        {
          "internalType": "uint256",
          "name": "index",
          "type": "uint256"
        }
      ],
      "name": "tokenOfOwnerByIndex",
      "outputs": [
        {
          "internalType": "uint256",
          "name": "",
          "type": "uint256"
        }
      ],
      "stateMutability": "view",
      "type": "function"
    },
    {
      "inputs": [
        {
          "internalType": "uint256",
          "name": "tokenId",
          "type": "uint256"
        }
      ],
      "name": "tokenURI",
      "outputs": [
        {
          "internalType": "string",
          "name": "",
          "type": "string"
        }
      ],
      "stateMutability": "pure",
      "type": "function"
    },
    {
      "inputs": [],
      "name": "totalSupply",
      "outputs": [
        {
          "internalType": "uint256",
          "name": "",
          "type": "uint256"
        }
      ],
      "stateMutability": "view",
      "type": "function"
    },
    {
      "inputs": [
        {
          "internalType": "address",
          "name": "from",
          "type": "address"
        },
        {
          "internalType": "address",
          "name": "to",
          "type": "address"
        },
        {
          "internalType": "uint256",
          "name": "tokenId",
          "type": "uint256"
        }
      ],
      "name": "transferFrom",
      "outputs": [],
      "stateMutability": "nonpayable",
      "type": "function"
    },
    {
      "inputs": [
        {
          "internalType": "address",
          "name": "newOwner",
          "type": "address"
        }
      ],
      "name": "transferOwnership",
      "outputs": [],
      "stateMutability": "nonpayable",
      "type": "function"
    }
  ],
  "bytecode": "0x60806040523480156200001157600080fd5b5060405162004ef138038062004ef183398181016040528101906200003791906200029a565b6040518060400160405280601681526020017f48617070792042697274686461792121212121212121000000000000000000008152506040518060400160405280600481526020017f48424421000000000000000000000000000000000000000000000000000000008152508160009080519060200190620000bb929190620001d3565b508060019080519060200190620000d4929190620001d3565b505050620000f7620000eb6200010560201b60201c565b6200010d60201b60201c565b80600f81905550506200034f565b600033905090565b6000600b60009054906101000a900473ffffffffffffffffffffffffffffffffffffffff16905081600b60006101000a81548173ffffffffffffffffffffffffffffffffffffffff021916908373ffffffffffffffffffffffffffffffffffffffff1602179055508173ffffffffffffffffffffffffffffffffffffffff168173ffffffffffffffffffffffffffffffffffffffff167f8be0079c531659141344cd1fd0a4f28419497f9722a3daafe3b4186f6b6457e060405160405180910390a35050565b828054620001e190620002d0565b90600052602060002090601f01602090048101928262000205576000855562000251565b82601f106200022057805160ff191683800117855562000251565b8280016001018555821562000251579182015b828111156200025057825182559160200191906001019062000233565b5b50905062000260919062000264565b5090565b5b808211156200027f57600081600090555060010162000265565b5090565b600081519050620002948162000335565b92915050565b600060208284031215620002ad57600080fd5b6000620002bd8482850162000283565b91505092915050565b6000819050919050565b60006002820490506001821680620002e957607f821691505b602082108114156200030057620002ff62000306565b5b50919050565b7f4e487b7100000000000000000000000000000000000000000000000000000000600052602260045260246000fd5b6200034081620002c6565b81146200034c57600080fd5b50565b614b92806200035f6000396000f3fe6080604052600436106101cd5760003560e01c80636352211e116100f7578063b88d4fde11610095578063e3b26c1111610064578063e3b26c11146106a8578063e985e9c5146106c4578063f2fde38b14610701578063fe57db251461072a576101cd565b8063b88d4fde146105da578063c87b56dd14610603578063c97986d414610640578063ddca3f431461067d576101cd565b8063715018a6116100d1578063715018a6146105445780638da5cb5b1461055b57806395d89b4114610586578063a22cb465146105b1576101cd565b80636352211e146104a1578063690e7c09146104de57806370a0823114610507576101cd565b80632f745c591161016f5780634712cc031161013e5780634712cc03146103c85780634f6ccce71461040b578063553bda2a146104485780635faf46bb14610464576101cd565b80632f745c591461031057806335d15b951461034d57806342842e0e1461037657806342966c681461039f576101cd565b8063081812fc116101ab578063081812fc14610256578063095ea7b31461029357806318160ddd146102bc57806323b872dd146102e7576101cd565b806301ffc9a7146101d2578063064931d91461020f57806306fdde031461022b575b600080fd5b3480156101de57600080fd5b506101f960048036038101906101f491906138c4565b610767565b604051610206919061443c565b60405180910390f35b6102296004803603810190610224919061370a565b610779565b005b34801561023757600080fd5b50610240610a9f565b60405161024d9190614457565b60405180910390f35b34801561026257600080fd5b5061027d60048036038101906102789190613957565b610b31565b60405161028a91906142cf565b60405180910390f35b34801561029f57600080fd5b506102ba60048036038101906102b59190613810565b610bb6565b005b3480156102c857600080fd5b506102d1610cce565b6040516102de9190614799565b60405180910390f35b3480156102f357600080fd5b5061030e6004803603810190610309919061370a565b610cdb565b005b34801561031c57600080fd5b5061033760048036038101906103329190613810565b610d3b565b6040516103449190614799565b60405180910390f35b34801561035957600080fd5b50610374600480360381019061036f9190613957565b610de0565b005b34801561038257600080fd5b5061039d6004803603810190610398919061370a565b610eec565b005b3480156103ab57600080fd5b506103c660048036038101906103c19190613957565b610f0c565b005b3480156103d457600080fd5b506103ef60048036038101906103ea9190613957565b610f68565b60405161040297969594939291906143a4565b60405180910390f35b34801561041757600080fd5b50610432600480360381019061042d9190613957565b611024565b60405161043f9190614799565b60405180910390f35b610462600480360381019061045d9190613810565b6110bb565b005b34801561047057600080fd5b5061048b60048036038101906104869190613957565b611378565b604051610498919061443c565b60405180910390f35b3480156104ad57600080fd5b506104c860048036038101906104c39190613957565b611398565b6040516104d591906142cf565b60405180910390f35b3480156104ea57600080fd5b5061050560048036038101906105009190613957565b61144a565b005b34801561051357600080fd5b5061052e600480360381019061052991906136a5565b6118dc565b60405161053b9190614799565b60405180910390f35b34801561055057600080fd5b50610559611994565b005b34801561056757600080fd5b50610570611a1c565b60405161057d91906142cf565b60405180910390f35b34801561059257600080fd5b5061059b611a46565b6040516105a89190614457565b60405180910390f35b3480156105bd57600080fd5b506105d860048036038101906105d391906137d4565b611ad8565b005b3480156105e657600080fd5b5061060160048036038101906105fc9190613759565b611c59565b005b34801561060f57600080fd5b5061062a60048036038101906106259190613957565b611cbb565b6040516106379190614457565b60405180910390f35b34801561064c57600080fd5b5061066760048036038101906106629190613810565b611d69565b6040516106749190614799565b60405180910390f35b34801561068957600080fd5b50610692611d9a565b60405161069f9190614799565b60405180910390f35b6106c260048036038101906106bd919061384c565b611da0565b005b3480156106d057600080fd5b506106eb60048036038101906106e691906136ce565b6120e8565b6040516106f8919061443c565b60405180910390f35b34801561070d57600080fd5b50610728600480360381019061072391906136a5565b61217c565b005b34801561073657600080fd5b50610751600480360381019061074c9190613957565b612274565b60405161075e919061443c565b60405180910390f35b600061077282612294565b9050919050565b600f5434146107bd576040517f08c379a00000000000000000000000000000000000000000000000000000000081526004016107b490614599565b60405180910390fd5b6107c561230e565b60006107d0836123cf565b90506000600d600083815260200190815260200160002060006101000a81548160ff02191690831515021790555060008490508073ffffffffffffffffffffffffffffffffffffffff166342842e0e3330856040518463ffffffff1660e01b815260040161084093929190614321565b600060405180830381600087803b15801561085a57600080fd5b505af115801561086e573d6000803e3d6000fd5b505050506040518060e001604052808673ffffffffffffffffffffffffffffffffffffffff1681526020016002808111156108d2577f4e487b7100000000000000000000000000000000000000000000000000000000600052602160045260246000fd5b81526020013373ffffffffffffffffffffffffffffffffffffffff1681526020018573ffffffffffffffffffffffffffffffffffffffff16815260200184815260200160018152602001600015158152506010600084815260200190815260200160002060008201518160000160006101000a81548173ffffffffffffffffffffffffffffffffffffffff021916908373ffffffffffffffffffffffffffffffffffffffff16021790555060208201518160000160146101000a81548160ff021916908360028111156109ce577f4e487b7100000000000000000000000000000000000000000000000000000000600052602160045260246000fd5b021790555060408201518160010160006101000a81548173ffffffffffffffffffffffffffffffffffffffff021916908373ffffffffffffffffffffffffffffffffffffffff16021790555060608201518160020160006101000a81548173ffffffffffffffffffffffffffffffffffffffff021916908373ffffffffffffffffffffffffffffffffffffffff1602179055506080820151816003015560a0820151816004015560c08201518160050160006101000a81548160ff0219169083151502179055509050505050505050565b606060008054610aae906149ed565b80601f0160208091040260200160405190810160405280929190818152602001828054610ada906149ed565b8015610b275780601f10610afc57610100808354040283529160200191610b27565b820191906000526020600020905b815481529060010190602001808311610b0a57829003601f168201915b5050505050905090565b6000610b3c826123ff565b610b7b576040517f08c379a0000000000000000000000000000000000000000000000000000000008152600401610b7290614659565b60405180910390fd5b6004600083815260200190815260200160002060009054906101000a900473ffffffffffffffffffffffffffffffffffffffff169050919050565b6000610bc182611398565b90508073ffffffffffffffffffffffffffffffffffffffff168373ffffffffffffffffffffffffffffffffffffffff161415610c32576040517f08c379a0000000000000000000000000000000000000000000000000000000008152600401610c29906146b9565b60405180910390fd5b8073ffffffffffffffffffffffffffffffffffffffff16610c5161246b565b73ffffffffffffffffffffffffffffffffffffffff161480610c805750610c7f81610c7a61246b565b6120e8565b5b610cbf576040517f08c379a0000000000000000000000000000000000000000000000000000000008152600401610cb6906145b9565b60405180910390fd5b610cc98383612473565b505050565b6000600980549050905090565b610cec610ce661246b565b8261252c565b610d2b576040517f08c379a0000000000000000000000000000000000000000000000000000000008152600401610d22906146f9565b60405180910390fd5b610d3683838361260a565b505050565b6000610d46836118dc565b8210610d87576040517f08c379a0000000000000000000000000000000000000000000000000000000008152600401610d7e90614499565b60405180910390fd5b600760008473ffffffffffffffffffffffffffffffffffffffff1673ffffffffffffffffffffffffffffffffffffffff168152602001908152602001600020600083815260200190815260200160002054905092915050565b3373ffffffffffffffffffffffffffffffffffffffff16610e0082611398565b73ffffffffffffffffffffffffffffffffffffffff1614610e56576040517f08c379a0000000000000000000000000000000000000000000000000000000008152600401610e4d90614479565b60405180910390fd5b600015156011600083815260200190815260200160002060009054906101000a900460ff16151514610ebd576040517f08c379a0000000000000000000000000000000000000000000000000000000008152600401610eb490614739565b60405180910390fd5b60016011600083815260200190815260200160002060006101000a81548160ff02191690831515021790555050565b610f0783838360405180602001604052806000815250611c59565b505050565b610f1d610f1761246b565b8261252c565b610f5c576040517f08c379a0000000000000000000000000000000000000000000000000000000008152600401610f5390614779565b60405180910390fd5b610f6581612866565b50565b60106020528060005260406000206000915090508060000160009054906101000a900473ffffffffffffffffffffffffffffffffffffffff16908060000160149054906101000a900460ff16908060010160009054906101000a900473ffffffffffffffffffffffffffffffffffffffff16908060020160009054906101000a900473ffffffffffffffffffffffffffffffffffffffff16908060030154908060040154908060050160009054906101000a900460ff16905087565b600061102e610cce565b821061106f576040517f08c379a000000000000000000000000000000000000000000000000000000000815260040161106690614719565b60405180910390fd5b600982815481106110a9577f4e487b7100000000000000000000000000000000000000000000000000000000600052603260045260246000fd5b90600052602060002001549050919050565b600f54816110c99190614888565b341461110a576040517f08c379a0000000000000000000000000000000000000000000000000000000008152600401611101906146d9565b60405180910390fd5b61111261230e565b600061111d836123cf565b90506000600d600083815260200190815260200160002060006101000a81548160ff0219169083151502179055506040518060e00160405280600073ffffffffffffffffffffffffffffffffffffffff168152602001600060028111156111ad577f4e487b7100000000000000000000000000000000000000000000000000000000600052602160045260246000fd5b81526020013373ffffffffffffffffffffffffffffffffffffffff1681526020018473ffffffffffffffffffffffffffffffffffffffff16815260200160008152602001348152602001600015158152506010600083815260200190815260200160002060008201518160000160006101000a81548173ffffffffffffffffffffffffffffffffffffffff021916908373ffffffffffffffffffffffffffffffffffffffff16021790555060208201518160000160146101000a81548160ff021916908360028111156112a9577f4e487b7100000000000000000000000000000000000000000000000000000000600052602160045260246000fd5b021790555060408201518160010160006101000a81548173ffffffffffffffffffffffffffffffffffffffff021916908373ffffffffffffffffffffffffffffffffffffffff16021790555060608201518160020160006101000a81548173ffffffffffffffffffffffffffffffffffffffff021916908373ffffffffffffffffffffffffffffffffffffffff1602179055506080820151816003015560a0820151816004015560c08201518160050160006101000a81548160ff021916908315150217905550905050505050565b600d6020528060005260406000206000915054906101000a900460ff1681565b6000806002600084815260200190815260200160002060009054906101000a900473ffffffffffffffffffffffffffffffffffffffff169050600073ffffffffffffffffffffffffffffffffffffffff168173ffffffffffffffffffffffffffffffffffffffff161415611441576040517f08c379a000000000000000000000000000000000000000000000000000000000815260040161143890614619565b60405180910390fd5b80915050919050565b3373ffffffffffffffffffffffffffffffffffffffff1661146a82611398565b73ffffffffffffffffffffffffffffffffffffffff16146114c0576040517f08c379a00000000000000000000000000000000000000000000000000000000081526004016114b7906145d9565b60405180910390fd5b60001515600d600083815260200190815260200160002060009054906101000a900460ff16151514611527576040517f08c379a000000000000000000000000000000000000000000000000000000000815260040161151e90614759565b60405180910390fd5b6001600d600083815260200190815260200160002060006101000a81548160ff0219169083151502179055506000601060008381526020019081526020016000209050600073ffffffffffffffffffffffffffffffffffffffff168160000160009054906101000a900473ffffffffffffffffffffffffffffffffffffffff1673ffffffffffffffffffffffffffffffffffffffff1614156116a65760008160020160009054906101000a900473ffffffffffffffffffffffffffffffffffffffff1690506000808273ffffffffffffffffffffffffffffffffffffffff168460040154604051611617906142ba565b60006040518083038185875af1925050503d8060008114611654576040519150601f19603f3d011682016040523d82523d6000602084013e611659565b606091505b50915091508161169e576040517f08c379a000000000000000000000000000000000000000000000000000000000815260040161169590614519565b60405180910390fd5b5050506118d8565b600160028111156116e0577f4e487b7100000000000000000000000000000000000000000000000000000000600052602160045260246000fd5b8160000160149054906101000a900460ff16600281111561172a577f4e487b7100000000000000000000000000000000000000000000000000000000600052602160045260246000fd5b14156118155760008160000160009054906101000a900473ffffffffffffffffffffffffffffffffffffffff1690508073ffffffffffffffffffffffffffffffffffffffff1663a9059cbb8360020160009054906101000a900473ffffffffffffffffffffffffffffffffffffffff1684600401546040518363ffffffff1660e01b81526004016117bc929190614413565b602060405180830381600087803b1580156117d657600080fd5b505af11580156117ea573d6000803e3d6000fd5b505050506040513d601f19601f8201168201806040525081019061180e919061389b565b50506118d7565b60008160000160009054906101000a900473ffffffffffffffffffffffffffffffffffffffff1690508073ffffffffffffffffffffffffffffffffffffffff166342842e0e308460020160009054906101000a900473ffffffffffffffffffffffffffffffffffffffff1685600301546040518463ffffffff1660e01b81526004016118a393929190614321565b600060405180830381600087803b1580156118bd57600080fd5b505af11580156118d1573d6000803e3d6000fd5b50505050505b5b5050565b60008073ffffffffffffffffffffffffffffffffffffffff168273ffffffffffffffffffffffffffffffffffffffff16141561194d576040517f08c379a0000000000000000000000000000000000000000000000000000000008152600401611944906145f9565b60405180910390fd5b600360008373ffffffffffffffffffffffffffffffffffffffff1673ffffffffffffffffffffffffffffffffffffffff168152602001908152602001600020549050919050565b61199c61246b565b73ffffffffffffffffffffffffffffffffffffffff166119ba611a1c565b73ffffffffffffffffffffffffffffffffffffffff1614611a10576040517f08c379a0000000000000000000000000000000000000000000000000000000008152600401611a0790614679565b60405180910390fd5b611a1a6000612872565b565b6000600b60009054906101000a900473ffffffffffffffffffffffffffffffffffffffff16905090565b606060018054611a55906149ed565b80601f0160208091040260200160405190810160405280929190818152602001828054611a81906149ed565b8015611ace5780601f10611aa357610100808354040283529160200191611ace565b820191906000526020600020905b815481529060010190602001808311611ab157829003601f168201915b5050505050905090565b611ae061246b565b73ffffffffffffffffffffffffffffffffffffffff168273ffffffffffffffffffffffffffffffffffffffff161415611b4e576040517f08c379a0000000000000000000000000000000000000000000000000000000008152600401611b4590614559565b60405180910390fd5b8060056000611b5b61246b565b73ffffffffffffffffffffffffffffffffffffffff1673ffffffffffffffffffffffffffffffffffffffff16815260200190815260200160002060008473ffffffffffffffffffffffffffffffffffffffff1673ffffffffffffffffffffffffffffffffffffffff16815260200190815260200160002060006101000a81548160ff0219169083151502179055508173ffffffffffffffffffffffffffffffffffffffff16611c0861246b565b73ffffffffffffffffffffffffffffffffffffffff167f17307eab39ab6107e8899845ad3d59bd9653f200f220920489ca2b5937696c3183604051611c4d919061443c565b60405180910390a35050565b611c6a611c6461246b565b8361252c565b611ca9576040517f08c379a0000000000000000000000000000000000000000000000000000000008152600401611ca0906146f9565b60405180910390fd5b611cb584848484612938565b50505050565b606073__$706acb30bebf408547067f7bc9e935b36e$__63c2b946f973f39fd6e51aad88f6f4ce6ab8827279cfffb922668060006040518463ffffffff1660e01b8152600401611d0d939291906142ea565b60006040518083038186803b158015611d2557600080fd5b505af4158015611d39573d6000803e3d6000fd5b505050506040513d6000823e3d601f19601f82011682018060405250810190611d629190613916565b9050919050565b600e6020528160005260406000208181548110611d8557600080fd5b90600052602060002001600091509150505481565b600f5481565b600f543414611de4576040517f08c379a0000000000000000000000000000000000000000000000000000000008152600401611ddb90614599565b60405180910390fd5b611dec61230e565b6000611df7826123cf565b90506000600d600083815260200190815260200160002060006101000a81548160ff02191690831515021790555060008490508073ffffffffffffffffffffffffffffffffffffffff166323b872dd3330876040518463ffffffff1660e01b8152600401611e6793929190614321565b602060405180830381600087803b158015611e8157600080fd5b505af1158015611e95573d6000803e3d6000fd5b505050506040513d601f19601f82011682018060405250810190611eb9919061389b565b506040518060e001604052808673ffffffffffffffffffffffffffffffffffffffff16815260200160016002811115611f1b577f4e487b7100000000000000000000000000000000000000000000000000000000600052602160045260246000fd5b81526020013373ffffffffffffffffffffffffffffffffffffffff1681526020018473ffffffffffffffffffffffffffffffffffffffff16815260200160008152602001858152602001600015158152506010600084815260200190815260200160002060008201518160000160006101000a81548173ffffffffffffffffffffffffffffffffffffffff021916908373ffffffffffffffffffffffffffffffffffffffff16021790555060208201518160000160146101000a81548160ff02191690836002811115612017577f4e487b7100000000000000000000000000000000000000000000000000000000600052602160045260246000fd5b021790555060408201518160010160006101000a81548173ffffffffffffffffffffffffffffffffffffffff021916908373ffffffffffffffffffffffffffffffffffffffff16021790555060608201518160020160006101000a81548173ffffffffffffffffffffffffffffffffffffffff021916908373ffffffffffffffffffffffffffffffffffffffff1602179055506080820151816003015560a0820151816004015560c08201518160050160006101000a81548160ff0219169083151502179055509050505050505050565b6000600560008473ffffffffffffffffffffffffffffffffffffffff1673ffffffffffffffffffffffffffffffffffffffff16815260200190815260200160002060008373ffffffffffffffffffffffffffffffffffffffff1673ffffffffffffffffffffffffffffffffffffffff16815260200190815260200160002060009054906101000a900460ff16905092915050565b61218461246b565b73ffffffffffffffffffffffffffffffffffffffff166121a2611a1c565b73ffffffffffffffffffffffffffffffffffffffff16146121f8576040517f08c379a00000000000000000000000000000000000000000000000000000000081526004016121ef90614679565b60405180910390fd5b600073ffffffffffffffffffffffffffffffffffffffff168173ffffffffffffffffffffffffffffffffffffffff161415612268576040517f08c379a000000000000000000000000000000000000000000000000000000000815260040161225f906144d9565b60405180910390fd5b61227181612872565b50565b60116020528060005260406000206000915054906101000a900460ff1681565b60007f780e9d63000000000000000000000000000000000000000000000000000000007bffffffffffffffffffffffffffffffffffffffffffffffffffffffff1916827bffffffffffffffffffffffffffffffffffffffffffffffffffffffff19161480612307575061230682612994565b5b9050919050565b6000612318611a1c565b90506000808273ffffffffffffffffffffffffffffffffffffffff16600f54604051612343906142ba565b60006040518083038185875af1925050503d8060008114612380576040519150601f19603f3d011682016040523d82523d6000602084013e612385565b606091505b5091509150816123ca576040517f08c379a00000000000000000000000000000000000000000000000000000000081526004016123c190614519565b60405180910390fd5b505050565b60006123db600c612a76565b6123ee826123e9600c612a8c565b612a9a565b6123f8600c612a8c565b9050919050565b60008073ffffffffffffffffffffffffffffffffffffffff166002600084815260200190815260200160002060009054906101000a900473ffffffffffffffffffffffffffffffffffffffff1673ffffffffffffffffffffffffffffffffffffffff1614159050919050565b600033905090565b816004600083815260200190815260200160002060006101000a81548173ffffffffffffffffffffffffffffffffffffffff021916908373ffffffffffffffffffffffffffffffffffffffff160217905550808273ffffffffffffffffffffffffffffffffffffffff166124e683611398565b73ffffffffffffffffffffffffffffffffffffffff167f8c5be1e5ebec7d5bd14f71427d1e84f3dd0314c0f7b2291e5b200ac8c7c3b92560405160405180910390a45050565b6000612537826123ff565b612576576040517f08c379a000000000000000000000000000000000000000000000000000000000815260040161256d90614579565b60405180910390fd5b600061258183611398565b90508073ffffffffffffffffffffffffffffffffffffffff168473ffffffffffffffffffffffffffffffffffffffff1614806125f057508373ffffffffffffffffffffffffffffffffffffffff166125d884610b31565b73ffffffffffffffffffffffffffffffffffffffff16145b80612601575061260081856120e8565b5b91505092915050565b8273ffffffffffffffffffffffffffffffffffffffff1661262a82611398565b73ffffffffffffffffffffffffffffffffffffffff1614612680576040517f08c379a000000000000000000000000000000000000000000000000000000000815260040161267790614699565b60405180910390fd5b600073ffffffffffffffffffffffffffffffffffffffff168273ffffffffffffffffffffffffffffffffffffffff1614156126f0576040517f08c379a00000000000000000000000000000000000000000000000000000000081526004016126e790614539565b60405180910390fd5b6126fb838383612ab8565b612706600082612473565b6001600360008573ffffffffffffffffffffffffffffffffffffffff1673ffffffffffffffffffffffffffffffffffffffff168152602001908152602001600020600082825461275691906148de565b925050819055506001600360008473ffffffffffffffffffffffffffffffffffffffff1673ffffffffffffffffffffffffffffffffffffffff16815260200190815260200160002060008282546127ad9190614888565b92505081905550816002600083815260200190815260200160002060006101000a81548173ffffffffffffffffffffffffffffffffffffffff021916908373ffffffffffffffffffffffffffffffffffffffff160217905550808273ffffffffffffffffffffffffffffffffffffffff168473ffffffffffffffffffffffffffffffffffffffff167fddf252ad1be2c89b69c2b068fc378daa952ba7f163c4a11628f55a4df523b3ef60405160405180910390a4505050565b61286f81612ac8565b50565b6000600b60009054906101000a900473ffffffffffffffffffffffffffffffffffffffff16905081600b60006101000a81548173ffffffffffffffffffffffffffffffffffffffff021916908373ffffffffffffffffffffffffffffffffffffffff1602179055508173ffffffffffffffffffffffffffffffffffffffff168173ffffffffffffffffffffffffffffffffffffffff167f8be0079c531659141344cd1fd0a4f28419497f9722a3daafe3b4186f6b6457e060405160405180910390a35050565b61294384848461260a565b61294f84848484612b1b565b61298e576040517f08c379a0000000000000000000000000000000000000000000000000000000008152600401612985906144b9565b60405180910390fd5b50505050565b60007f80ac58cd000000000000000000000000000000000000000000000000000000007bffffffffffffffffffffffffffffffffffffffffffffffffffffffff1916827bffffffffffffffffffffffffffffffffffffffffffffffffffffffff19161480612a5f57507f5b5e139f000000000000000000000000000000000000000000000000000000007bffffffffffffffffffffffffffffffffffffffffffffffffffffffff1916827bffffffffffffffffffffffffffffffffffffffffffffffffffffffff1916145b80612a6f5750612a6e82612cb2565b5b9050919050565b6001816000016000828254019250508190555050565b600081600001549050919050565b612ab4828260405180602001604052806000815250612d1c565b5050565b612ac3838383612d77565b505050565b612ad181612e8b565b6000600660008381526020019081526020016000208054612af1906149ed565b905014612b1857600660008281526020019081526020016000206000612b1791906134fa565b5b50565b6000612b3c8473ffffffffffffffffffffffffffffffffffffffff16612f9c565b15612ca5578373ffffffffffffffffffffffffffffffffffffffff1663150b7a02612b6561246b565b8786866040518563ffffffff1660e01b8152600401612b879493929190614358565b602060405180830381600087803b158015612ba157600080fd5b505af1925050508015612bd257506040513d601f19601f82011682018060405250810190612bcf91906138ed565b60015b612c55573d8060008114612c02576040519150601f19603f3d011682016040523d82523d6000602084013e612c07565b606091505b50600081511415612c4d576040517f08c379a0000000000000000000000000000000000000000000000000000000008152600401612c44906144b9565b60405180910390fd5b805181602001fd5b63150b7a0260e01b7bffffffffffffffffffffffffffffffffffffffffffffffffffffffff1916817bffffffffffffffffffffffffffffffffffffffffffffffffffffffff191614915050612caa565b600190505b949350505050565b60007f01ffc9a7000000000000000000000000000000000000000000000000000000007bffffffffffffffffffffffffffffffffffffffffffffffffffffffff1916827bffffffffffffffffffffffffffffffffffffffffffffffffffffffff1916149050919050565b612d268383612faf565b612d336000848484612b1b565b612d72576040517f08c379a0000000000000000000000000000000000000000000000000000000008152600401612d69906144b9565b60405180910390fd5b505050565b612d8283838361317d565b600073ffffffffffffffffffffffffffffffffffffffff168373ffffffffffffffffffffffffffffffffffffffff161415612dc557612dc081613182565b612e04565b8173ffffffffffffffffffffffffffffffffffffffff168373ffffffffffffffffffffffffffffffffffffffff1614612e0357612e0283826131cb565b5b5b600073ffffffffffffffffffffffffffffffffffffffff168273ffffffffffffffffffffffffffffffffffffffff161415612e4757612e4281613338565b612e86565b8273ffffffffffffffffffffffffffffffffffffffff168273ffffffffffffffffffffffffffffffffffffffff1614612e8557612e84828261347b565b5b5b505050565b6000612e9682611398565b9050612ea481600084612ab8565b612eaf600083612473565b6001600360008373ffffffffffffffffffffffffffffffffffffffff1673ffffffffffffffffffffffffffffffffffffffff1681526020019081526020016000206000828254612eff91906148de565b925050819055506002600083815260200190815260200160002060006101000a81549073ffffffffffffffffffffffffffffffffffffffff021916905581600073ffffffffffffffffffffffffffffffffffffffff168273ffffffffffffffffffffffffffffffffffffffff167fddf252ad1be2c89b69c2b068fc378daa952ba7f163c4a11628f55a4df523b3ef60405160405180910390a45050565b600080823b905060008111915050919050565b600073ffffffffffffffffffffffffffffffffffffffff168273ffffffffffffffffffffffffffffffffffffffff16141561301f576040517f08c379a000000000000000000000000000000000000000000000000000000000815260040161301690614639565b60405180910390fd5b613028816123ff565b15613068576040517f08c379a000000000000000000000000000000000000000000000000000000000815260040161305f906144f9565b60405180910390fd5b61307460008383612ab8565b6001600360008473ffffffffffffffffffffffffffffffffffffffff1673ffffffffffffffffffffffffffffffffffffffff16815260200190815260200160002060008282546130c49190614888565b92505081905550816002600083815260200190815260200160002060006101000a81548173ffffffffffffffffffffffffffffffffffffffff021916908373ffffffffffffffffffffffffffffffffffffffff160217905550808273ffffffffffffffffffffffffffffffffffffffff16600073ffffffffffffffffffffffffffffffffffffffff167fddf252ad1be2c89b69c2b068fc378daa952ba7f163c4a11628f55a4df523b3ef60405160405180910390a45050565b505050565b600980549050600a600083815260200190815260200160002081905550600981908060018154018082558091505060019003906000526020600020016000909190919091505550565b600060016131d8846118dc565b6131e291906148de565b90506000600860008481526020019081526020016000205490508181146132c7576000600760008673ffffffffffffffffffffffffffffffffffffffff1673ffffffffffffffffffffffffffffffffffffffff168152602001908152602001600020600084815260200190815260200160002054905080600760008773ffffffffffffffffffffffffffffffffffffffff1673ffffffffffffffffffffffffffffffffffffffff168152602001908152602001600020600084815260200190815260200160002081905550816008600083815260200190815260200160002081905550505b6008600084815260200190815260200160002060009055600760008573ffffffffffffffffffffffffffffffffffffffff1673ffffffffffffffffffffffffffffffffffffffff16815260200190815260200160002060008381526020019081526020016000206000905550505050565b6000600160098054905061334c91906148de565b90506000600a60008481526020019081526020016000205490506000600983815481106133a2577f4e487b7100000000000000000000000000000000000000000000000000000000600052603260045260246000fd5b9060005260206000200154905080600983815481106133ea577f4e487b7100000000000000000000000000000000000000000000000000000000600052603260045260246000fd5b906000526020600020018190555081600a600083815260200190815260200160002081905550600a600085815260200190815260200160002060009055600980548061345f577f4e487b7100000000000000000000000000000000000000000000000000000000600052603160045260246000fd5b6001900381819060005260206000200160009055905550505050565b6000613486836118dc565b905081600760008573ffffffffffffffffffffffffffffffffffffffff1673ffffffffffffffffffffffffffffffffffffffff168152602001908152602001600020600083815260200190815260200160002081905550806008600084815260200190815260200160002081905550505050565b508054613506906149ed565b6000825580601f106135185750613537565b601f016020900490600052602060002090810190613536919061353a565b5b50565b5b8082111561355357600081600090555060010161353b565b5090565b600061356a613565846147e5565b6147b4565b90508281526020810184848401111561358257600080fd5b61358d8482856149ab565b509392505050565b60006135a86135a384614815565b6147b4565b9050828152602081018484840111156135c057600080fd5b6135cb8482856149ba565b509392505050565b6000813590506135e281614b00565b92915050565b6000813590506135f781614b17565b92915050565b60008151905061360c81614b17565b92915050565b60008135905061362181614b2e565b92915050565b60008151905061363681614b2e565b92915050565b600082601f83011261364d57600080fd5b813561365d848260208601613557565b91505092915050565b600082601f83011261367757600080fd5b8151613687848260208601613595565b91505092915050565b60008135905061369f81614b45565b92915050565b6000602082840312156136b757600080fd5b60006136c5848285016135d3565b91505092915050565b600080604083850312156136e157600080fd5b60006136ef858286016135d3565b9250506020613700858286016135d3565b9150509250929050565b60008060006060848603121561371f57600080fd5b600061372d868287016135d3565b935050602061373e868287016135d3565b925050604061374f86828701613690565b9150509250925092565b6000806000806080858703121561376f57600080fd5b600061377d878288016135d3565b945050602061378e878288016135d3565b935050604061379f87828801613690565b925050606085013567ffffffffffffffff8111156137bc57600080fd5b6137c88782880161363c565b91505092959194509250565b600080604083850312156137e757600080fd5b60006137f5858286016135d3565b9250506020613806858286016135e8565b9150509250929050565b6000806040838503121561382357600080fd5b6000613831858286016135d3565b925050602061384285828601613690565b9150509250929050565b60008060006060848603121561386157600080fd5b600061386f868287016135d3565b935050602061388086828701613690565b9250506040613891868287016135d3565b9150509250925092565b6000602082840312156138ad57600080fd5b60006138bb848285016135fd565b91505092915050565b6000602082840312156138d657600080fd5b60006138e484828501613612565b91505092915050565b6000602082840312156138ff57600080fd5b600061390d84828501613627565b91505092915050565b60006020828403121561392857600080fd5b600082015167ffffffffffffffff81111561394257600080fd5b61394e84828501613666565b91505092915050565b60006020828403121561396957600080fd5b600061397784828501613690565b91505092915050565b61398981614912565b82525050565b61399881614912565b82525050565b6139a781614924565b82525050565b6139b681614924565b82525050565b60006139c782614845565b6139d1818561485b565b93506139e18185602086016149ba565b6139ea81614adb565b840191505092915050565b6139fe81614999565b82525050565b6000613a0f82614850565b613a198185614877565b9350613a298185602086016149ba565b613a3281614adb565b840191505092915050565b6000613a4a601483614877565b91507f746869732069736e7420796f7572206f726465720000000000000000000000006000830152602082019050919050565b6000613a8a602b83614877565b91507f455243373231456e756d657261626c653a206f776e657220696e646578206f7560008301527f74206f6620626f756e64730000000000000000000000000000000000000000006020830152604082019050919050565b6000613af0603283614877565b91507f4552433732313a207472616e7366657220746f206e6f6e20455243373231526560008301527f63656976657220696d706c656d656e74657200000000000000000000000000006020830152604082019050919050565b6000613b56602683614877565b91507f4f776e61626c653a206e6577206f776e657220697320746865207a65726f206160008301527f64647265737300000000000000000000000000000000000000000000000000006020830152604082019050919050565b6000613bbc601c83614877565b91507f4552433732313a20746f6b656e20616c7265616479206d696e746564000000006000830152602082019050919050565b6000613bfc601483614877565b91507f4661696c656420746f2073656e642045746865720000000000000000000000006000830152602082019050919050565b6000613c3c602483614877565b91507f4552433732313a207472616e7366657220746f20746865207a65726f2061646460008301527f72657373000000000000000000000000000000000000000000000000000000006020830152604082019050919050565b6000613ca2601983614877565b91507f4552433732313a20617070726f766520746f2063616c6c6572000000000000006000830152602082019050919050565b6000613ce2602c83614877565b91507f4552433732313a206f70657261746f7220717565727920666f72206e6f6e657860008301527f697374656e7420746f6b656e00000000000000000000000000000000000000006020830152604082019050919050565b6000613d48600f83614877565b91507f706c656173652073656e642066656500000000000000000000000000000000006000830152602082019050919050565b6000613d88603883614877565b91507f4552433732313a20617070726f76652063616c6c6572206973206e6f74206f7760008301527f6e6572206e6f7220617070726f76656420666f7220616c6c00000000000000006020830152604082019050919050565b6000613dee601783614877565b91507f796f752063616e74206f70656e2074686973206f6e65210000000000000000006000830152602082019050919050565b6000613e2e602a83614877565b91507f4552433732313a2062616c616e636520717565727920666f7220746865207a6560008301527f726f2061646472657373000000000000000000000000000000000000000000006020830152604082019050919050565b6000613e94602983614877565b91507f4552433732313a206f776e657220717565727920666f72206e6f6e657869737460008301527f656e7420746f6b656e00000000000000000000000000000000000000000000006020830152604082019050919050565b6000613efa602083614877565b91507f4552433732313a206d696e7420746f20746865207a65726f20616464726573736000830152602082019050919050565b6000613f3a602c83614877565b91507f4552433732313a20617070726f76656420717565727920666f72206e6f6e657860008301527f697374656e7420746f6b656e00000000000000000000000000000000000000006020830152604082019050919050565b6000613fa0602083614877565b91507f4f776e61626c653a2063616c6c6572206973206e6f7420746865206f776e65726000830152602082019050919050565b6000613fe0602983614877565b91507f4552433732313a207472616e73666572206f6620746f6b656e2074686174206960008301527f73206e6f74206f776e00000000000000000000000000000000000000000000006020830152604082019050919050565b6000614046602183614877565b91507f4552433732313a20617070726f76616c20746f2063757272656e74206f776e6560008301527f72000000000000000000000000000000000000000000000000000000000000006020830152604082019050919050565b60006140ac601a83614877565b91507f706c656173652073656e6420636f727265637420616d6f756e740000000000006000830152602082019050919050565b60006140ec60008361486c565b9150600082019050919050565b6000614106603183614877565b91507f4552433732313a207472616e736665722063616c6c6572206973206e6f74206f60008301527f776e6572206e6f7220617070726f7665640000000000000000000000000000006020830152604082019050919050565b600061416c602c83614877565b91507f455243373231456e756d657261626c653a20676c6f62616c20696e646578206f60008301527f7574206f6620626f756e647300000000000000000000000000000000000000006020830152604082019050919050565b60006141d2601383614877565b91507f616c72656164792073616964207468616e6b73000000000000000000000000006000830152602082019050919050565b6000614212600e83614877565b91507f616c7265616479206f70656e65640000000000000000000000000000000000006000830152602082019050919050565b6000614252603083614877565b91507f4552433732314275726e61626c653a2063616c6c6572206973206e6f74206f7760008301527f6e6572206e6f7220617070726f766564000000000000000000000000000000006020830152604082019050919050565b6142b48161498f565b82525050565b60006142c5826140df565b9150819050919050565b60006020820190506142e46000830184613980565b92915050565b60006060820190506142ff600083018661398f565b61430c602083018561398f565b61431960408301846139ad565b949350505050565b60006060820190506143366000830186613980565b6143436020830185613980565b61435060408301846142ab565b949350505050565b600060808201905061436d6000830187613980565b61437a6020830186613980565b61438760408301856142ab565b818103606083015261439981846139bc565b905095945050505050565b600060e0820190506143b9600083018a613980565b6143c660208301896139f5565b6143d36040830188613980565b6143e06060830187613980565b6143ed60808301866142ab565b6143fa60a08301856142ab565b61440760c083018461399e565b98975050505050505050565b60006040820190506144286000830185613980565b61443560208301846142ab565b9392505050565b6000602082019050614451600083018461399e565b92915050565b600060208201905081810360008301526144718184613a04565b905092915050565b6000602082019050818103600083015261449281613a3d565b9050919050565b600060208201905081810360008301526144b281613a7d565b9050919050565b600060208201905081810360008301526144d281613ae3565b9050919050565b600060208201905081810360008301526144f281613b49565b9050919050565b6000602082019050818103600083015261451281613baf565b9050919050565b6000602082019050818103600083015261453281613bef565b9050919050565b6000602082019050818103600083015261455281613c2f565b9050919050565b6000602082019050818103600083015261457281613c95565b9050919050565b6000602082019050818103600083015261459281613cd5565b9050919050565b600060208201905081810360008301526145b281613d3b565b9050919050565b600060208201905081810360008301526145d281613d7b565b9050919050565b600060208201905081810360008301526145f281613de1565b9050919050565b6000602082019050818103600083015261461281613e21565b9050919050565b6000602082019050818103600083015261463281613e87565b9050919050565b6000602082019050818103600083015261465281613eed565b9050919050565b6000602082019050818103600083015261467281613f2d565b9050919050565b6000602082019050818103600083015261469281613f93565b9050919050565b600060208201905081810360008301526146b281613fd3565b9050919050565b600060208201905081810360008301526146d281614039565b9050919050565b600060208201905081810360008301526146f28161409f565b9050919050565b60006020820190508181036000830152614712816140f9565b9050919050565b600060208201905081810360008301526147328161415f565b9050919050565b60006020820190508181036000830152614752816141c5565b9050919050565b6000602082019050818103600083015261477281614205565b9050919050565b6000602082019050818103600083015261479281614245565b9050919050565b60006020820190506147ae60008301846142ab565b92915050565b6000604051905081810181811067ffffffffffffffff821117156147db576147da614aac565b5b8060405250919050565b600067ffffffffffffffff821115614800576147ff614aac565b5b601f19601f8301169050602081019050919050565b600067ffffffffffffffff8211156148305761482f614aac565b5b601f19601f8301169050602081019050919050565b600081519050919050565b600081519050919050565b600082825260208201905092915050565b600081905092915050565b600082825260208201905092915050565b60006148938261498f565b915061489e8361498f565b9250827fffffffffffffffffffffffffffffffffffffffffffffffffffffffffffffffff038211156148d3576148d2614a1f565b5b828201905092915050565b60006148e98261498f565b91506148f48361498f565b92508282101561490757614906614a1f565b5b828203905092915050565b600061491d8261496f565b9050919050565b60008115159050919050565b60007fffffffff0000000000000000000000000000000000000000000000000000000082169050919050565b600081905061496a82614aec565b919050565b600073ffffffffffffffffffffffffffffffffffffffff82169050919050565b6000819050919050565b60006149a48261495c565b9050919050565b82818337600083830152505050565b60005b838110156149d85780820151818401526020810190506149bd565b838111156149e7576000848401525b50505050565b60006002820490506001821680614a0557607f821691505b60208210811415614a1957614a18614a7d565b5b50919050565b7f4e487b7100000000000000000000000000000000000000000000000000000000600052601160045260246000fd5b7f4e487b7100000000000000000000000000000000000000000000000000000000600052602160045260246000fd5b7f4e487b7100000000000000000000000000000000000000000000000000000000600052602260045260246000fd5b7f4e487b7100000000000000000000000000000000000000000000000000000000600052604160045260246000fd5b6000601f19601f8301169050919050565b60038110614afd57614afc614a4e565b5b50565b614b0981614912565b8114614b1457600080fd5b50565b614b2081614924565b8114614b2b57600080fd5b50565b614b3781614930565b8114614b4257600080fd5b50565b614b4e8161498f565b8114614b5957600080fd5b5056fea2646970667358221220a6eb65c37069ce83fd2e2466167f98fd6fe072797dbbcde8aa674d6e33964e5a64736f6c63430008000033",
  "linkReferences": {
    "contracts/MetadataManager.sol": {
      "MetadataManager": [
        {
          "length": 20,
          "start": 8222
        }
      ]
    }
  },
  "deployedLinkReferences": {
    "contracts/MetadataManager.sol": {
      "MetadataManager": [
        {
          "length": 20,
          "start": 7359
        }
      ]
    }
  }
}